:1000000085EF01F0F76A140FF66E000EF722090073
:10001000F550120080C094D4F76A280FF66E000ED7
:10002000F7220900F550120000000000FFFFFFFF5B
:10003000F76A400FF66E000EF7220900F550120025
:10004000FFFFFFFFFFFFFFFF000E956E966E956AA4
:100050008C680468056895928C9295908C90086ADB
:10006000076A9CEF01F025C027F0266A2650070892
:100070000EE327BE02D08D9401D08D849694969085
:100080008D9096908D80D8902736262AEFD7120033
:10009000956A8C6A04B802D08C9801D08C889598A7
:1000A00004BC02D08C9C01D08C8C959C04B402D0F2
:1000B0008C9401D08C84959495928C826EEF00F094
:1000C00010C025F0D0DF0FC025F0CDDF0EC025F029
:1000D000CADF0DC025F0C7DF0494DAD795968C8669
:1000E00095968C9695928C927DEF00F023500E6E33
:1000F0000E1E24C00DF00D1EE3D712001A801AC088
:1001000023F022C024F0F2DF1A901AC023F022C09C
:1001100024F0ECDF12001A9421C022F0EFDF200E51
:10012000006E002EFED700D000001200EA6A1E0EFC
:10013000E96EEF500DE0060E016E006A002EFED74C
:10014000012EFBD77B0E006E002EFED7EF2EF3D7CD
:1001500012001A901A921A841A96380E216EDBDF5A
:10016000420E006E002EFED700000C0E216ED3DF73
:10017000420E006E002EFED70000010E216ECBDF76
:10018000020E1E6ED3DF060E216EC5DF420E006E1C
:10019000002EFED700009DEF01F01A841EC022F051
:1001A000ADDF200E006E002EFED700D00000120042
:1001B000036A1E50F2CF20F0F29E24DF20BEF28EA2
:1001C0001F24206E216EA7DF12001C6A1CBE03D004
:1001D0001C500F0845E3010E1C241D6E1E6A1F6E85
:1001E000E7DF200E1E6ED9DF200E1E6ED6DF1E6AE0
:1001F000D4DF010E1E6ED1DF010E1C241D6E010E18
:100200001E6E1DC01FF0D4DF1E6AC7DF010E1E6EFA
:10021000C4DF010E1E6EC1DF010E1E6EBEDF040EB6
:100220001D6EE10E1E6E82DF1D2EFBD71E6A1CC0E6
:100230001FF0BEDF200E1E6EB0DF200E1E6EADDF83
:10024000010E1E6E1CC01FF0B3DF200E1E6EA5DF58
:10025000200E1E6EA2DF640E1E6E68DF1C2AB6D74B
:10026000100E1C6E1CBE4FD01C5000084CE21E6AC3
:100270001CC01FF09DDF200E1E6E8FDF200E1E6E35
:100280008CDF1E6A8ADF010E1E6E87DF010E1E6E76
:100290001CC01FF08DDF1E6A80DF010E1E6E7DDF29
:1002A000010E1E6E7ADF010E1E6E77DF040E1D6ECC
:1002B000E10E1E6E3BDF1D2EFBD71E6A1CC01FF019
:1002C00077DF200E1E6E69DF200E1E6E66DF200EA9
:1002D0001E6E63DF200E1E6E60DF010E1E6E1CC0E0
:1002E0001FF066DF200E1E6E58DF200E1E6E55DFDB
:1002F000200E1E6E52DF200E1E6E4FDF640E1E6E2D
:1003000015DF1C06AFD7CAEF01F0F86AD09E066A67
:100310000D6A0E6A0F6A106A196AC150C00B0F0984
:10032000C16E070EB46E1168126813681468156800
:1003300016681768186888D60CD7400E216EEBDE59
:100340001B6A1BBE03D01B5007080DE3036A1B503A
:10035000F2CF1DF0F29E60DE1DBEF28E1D6E1E6E8F
:100360001CDF1B2AEED7480E216ED5DE1B6A1BBE92
:1003700003D01B5007080DE3036A1B50F2CF1DF09A
:10038000F29E56DE1DBEF28E1D6E1E6E06DF1B2A0D
:08039000EED71BD7FED70300D6
:020000040030CA
:0E00000027CC3E1E0087A1000FC00FE00F406E
:00000001FF
;PIC18F4550
;CRC=2290  CREATED="08-Dec-20 08:55"
