:100000003CEF01F0F76A140FF66E000EF7220900BC
:10001000F5501200C0F9A4B0999282F880908883BC
:10002000C6A1868EF76A340FF66E000EF72209001D
:10003000F55012002D28231E19140F0A0500000E7A
:10004000956E966E956A8C680468056895928C9298
:1000500095908C90086A076A6EEF01F0016A026A57
:10006000006A036A365002E1355018E0100E376E10
:10007000D89033363436003603363650035C02E10E
:100080003550005C07E33550005ED8A003063650BB
:10009000035ED88001360236372EEAD712003AC006
:1000A0003CF03B6A3B5007080EE33CBE02D08D9407
:1000B00001D08D84969496908D9096908D80D89056
:1000C0003C363B2AEFD71200956A8C6A04B802D0FE
:1000D0008C9801D08C88959804BC02D08C9C01D05F
:1000E0008C8C959C04B402D08C9401D08C84959413
:1000F00095928C828AEF00F039C03AF0D0DF38C098
:100100003AF0CDDF37C03AF0CADF36C03AF0C7DF89
:10011000049CDAD7959E8C9E959E8C8E95928C929F
:100120001200EA6A2C0EE96EEF500DE0060E016E29
:10013000006A002EFED7012EFBD77B0E006E002E2C
:10014000FED7EF2EF3D71200938A81BA14D0140E83
:100150002C6EE7DF938A81BA0ED02884292A2B6A75
:100160002A6A29BE05D02950090802E2090E296E23
:10017000938A81AAFDD7938881B811D0140E2C6E72
:10018000D0DF938881B80BD028842B6A2A6A29068D
:1001900029AE02D0010E296E938881A8FDD79384E1
:1001A00081B401D02894938681B60AD0140E2C6EA7
:1001B000B8DF938681B604D02870938681A6FDD7D8
:1001C000938481B401D02894D3EF01F0956A8C6AAE
:1001D00005BC02D08C9C01D08C8C959C05B802D0BB
:1001E0008C9801D08C88959805B402D08C9401D05D
:1001F0008C84959495908C800AEF01F007C02CF0C8
:1002000008C02DF02DC03AF04ADF2CC03AF047DF8D
:100210000594DCD795968C8695968C9695908C90C7
:100220001200E00E0716086A036A26501E0FE96ED8
:10023000000E0320EA6EEF500712E0DF262A070EB9
:1002400026163AEF01F0E00E0716086A036A2650F8
:100250001E0FE96E000E0320EA6EEF500712CEDF8C
:100260002606070E26163AEF01F028A002D0D9D7AD
:1002700001D0E9D7E0EF01F0F86AD09E066A0D6A76
:100280000E6A0F6A106A196A266A28902892C1506D
:10029000C00B0F09C16E070EB46E116812681368A7
:1002A000146815681668176818681D0E1A6E170E00
:1002B0001B6E1B0E1C6E0F0E1D6E1D0E1E6E150E80
:1002C0001F6E170E206E130E216E030E226E0B0E84
:1002D000236E090E246E0D0E256EB1D6296A2B6A87
:1002E0002A6A28942882036A2950F2CF2CF0F29EC1
:1002F00089DE2CBEF28E2C6E2BC034F02AC033F077
:10030000366A640E356EAADE02C02EF001C02DF0F2
:1003100002C003F00150F2CF2FF0F29E73DE2FBE29
:10032000F28E2F6E2BC034F02AC033F0366A0A0EDC
:10033000356E94DE02C031F001C030F002C034F0FE
:1003400001C033F0366A0A0E356E88DE00C030F028
:1003500003C031F003C003F00050F2CF32F0F29E40
:1003600051DE32BEF28E326E2BC034F02AC033F032
:10037000366A0A0E356E72DE00C033F003C034F008
:1003800003C003F00050F2CF35F0F29E3BDE35BEE5
:10039000F28E356E2CC036F02FC037F032C038F0F8
:1003A000396EAADED1D6010E295C036AF2CF2CF099
:1003B000F29E38DE2CBEF28E276E28A46DD055D763
:1003C00027C02CF0AEDE2A2AD8B42B2A2A50900857
:1003D00004E12B2C02D02B6A2A6A036A2950F2CF3F
:1003E0002CF0F29E0FDE2CBEF28E2C6E2BC034F061
:1003F0002AC033F0366A640E356E30DE02C02EF04D
:1004000001C02DF002C003F00150F2CF2FF0F29E98
:10041000F9DD2FBEF28E2F6E2BC034F02AC033F0E0
:10042000366A0A0E356E1ADE02C031F001C030F0B5
:1004300002C034F001C033F0366A0A0E356E0EDEAB
:1004400000C030F003C031F003C003F00050F2CF21
:1004500032F0F29ED7DD32BEF28E326E2BC034F017
:100460002AC033F0366A0A0E356EF8DD00C033F06C
:1004700003C034F003C003F00050F2CF35F0F29E19
:10048000C1DD35BEF28E356E2CC036F02FC037F090
:0C04900032C038F0396E30DE85D7030032
:020000040030CA
:0E00000027CC3E1E0087A1000FC00FE00F406E
:00000001FF
;PIC18F4550
;CRC=EB49  CREATED="29-Dec-20 09:25"
