:1000000063EF03F0F76A140FF66E000EF722090093
:10001000F5501200C0F9A4B0999282F880908883BC
:10002000C6A1868EF76A340FF66E000EF72209001D
:10003000F55012000001020503040102200307032A
:10004000060602050303060602030304070307204E
:100050002007070606030304000606050304010142
:10006000072020070006020503040006020303041C
:10007000202020202020F76A860FF66E000EF7223F
:100080000900F5501200070F1F1F1F1F1F1F1F1F02
:100090001F00000000001C1E1F1F1F1F1F1F00004D
:1000A0000000001F1F1F1F1F1F1F1F1F1E1C1F1FC1
:1000B0001F1F1F1F0F071F1F1F0000001F1F1F1FD5
:1000C0001F1F1F1F1F1FF76AD60FF66E000EF722A5
:1000D0000900F550120080C094D444454D2053418E
:1000E0004E205048414D3A002044454D2053414E4A
:1000F000205048414D3A2000000E956E966E956A4C
:100100008C680468056895928C9295908C90086A2A
:10011000076A7AEF03F032C434F40401336B3351CD
:1001200007080EE334BF02D08D9401D08D849694DD
:1001300096908D9096908D80D8903437332BEFD752
:1001400000011200956A8C6A04B802D08C9801D024
:100150008C88959804BC02D08C9C01D08C8C959C8A
:1001600004B402D08C9401D08C84959495928C82A6
:10017000120010C032F4CFDF0FC032F4CCDF0EC05B
:1001800032F4C9DF0DC032F4C6DF0494DBDF95968C
:100190008C8695968C9695928C92120004012BC4B5
:1001A00010F0101E2CC40FF00F1E0001E2DF120031
:1001B0001B841BC02BF42AC42CF4F0DF1B941BC03F
:1001C0002BF42AC42CF4EADF12001B9828C42AF46A
:1001D000EFDF1200040EEA6E280EE96EEF500DE01C
:1001E000060E016E006A002EFED7012EFBD77B0E95
:1001F000006E002EFED7EF2EF3D712001B801B825D
:100200001B941B961B9A27C428F4DFDF100E006E88
:10021000002EFED700000C0E0401286F0001D5DF70
:10022000100E006E002EFED70000010E0401286F94
:100230000001CBDF020E0401286F0001CBDF060EA8
:100240000401286F0001C1DF100E006E002EFED7E2
:1002500000007FEF03F0040130C40EF00E1E31C425
:100260000DF00D1E000185DF12001A801AC030F457
:100270002FC431F4F0DF1A901AC030F42FC431F4D7
:10028000EADF12001A942EC42FF4EFDF200E006E66
:10029000002EFED700D0000012001A901A921A8485
:1002A0001A96380E04012E6F0001ECDF420E006E2C
:1002B000002EFED700000C0E04012E6F0001E2DFBD
:1002C000420E006E002EFED70000010E04012E6FBC
:1002D0000001D8DF020E0401286F00017BDF060E4B
:1002E00004012E6F0001CEDF420E006E002EFED7FD
:1002F000000080EF03F0036A04012B51F2CF2DF4CC
:10030000F29E0001E0DE04012DBFF28E2C252D6F40
:100310002E6F0001B7DF12001A842BC42FF4A5DF63
:10032000200E006E002EFED700D000001200090043
:10033000F5520CE0F6CF27F4F7CF28F4F5CF2BF4E5
:10034000EBDF27C4F6FF28C4F7FFF1D78AEF03F0ED
:100350001B8829C42AF42CDF12000900F5520CE096
:10036000F6CF27F4F7CF28F4F5CF29F4F1DF27C42F
:10037000F6FF28C4F7FFF1D794EF03F004012951E9
:10038000016A285D03E228C400F00CD0006A080E60
:100390002A6F283700362951005CD8B0006E01362C
:1003A0002A2FF7D7000112001FC428F4640E04019D
:1003B000296F0001E3DF300E01240401246F1FC404
:1003C00028F40A0E296F0001D9DF01C028F40A0EB3
:1003D0000401296F0001D2DF300E00240401256FD3
:1003E0001FC428F40A0E296F0001C8DF300E002454
:1003F0000401266F2451300807E1200E246F255197
:10040000300802E1200E256F950E286F0001DDDE19
:1004100024C429F49DDF25C429F49ADF26C429F4D5
:1004200097DFC2EF03F0006A016A04012A51D890F5
:100430002BB10026003201322BB3002600320132EC
:100440002BB50026003201322BB7002600320132D4
:100450002BB90026003201322BBB002600320132BC
:100460002BBD0026003201322BBF002600320132A4
:10047000000159EF02F028C42BF429C42CF43BDF0F
:100480000401206B20BF03D0205105082CE320512C
:10049000030809E1010E28252A6F2B6F29C42CF4CB
:1004A000000129DF040127C42AF4060E2B6F000186
:1004B000BAD7015004012B6B2A6F036A20512A25F9
:1004C000016E2B5103220150F2CF2AF4F29E00015B
:1004D000A9DD04012ABFF28E2A6F2B6F00011CDFF9
:1004E0000401202BCFD7000112001FC428F4640E92
:1004F0000401296F000142DF01C024F41FC428F465
:10050000640E0401296F000139DF00C028F40A0ECF
:100510000401296F000132DF01C025F41FC428F453
:100520000A0E0401296F000129DF00C026F404012E
:10053000245306E10A0E246F255302E10A0E256FAB
:1005400024C427F4020E286F296B000194DF25C410
:1005500027F4020E0401286F030E296F00018BDFC0
:1005600026C427F4020E0401286F060E296F00012D
:1005700082DFC3EF03F01FC428F4640E0401296F67
:100580000001FCDE300E01240401246F1FC428F496
:100590000A0E296F0001F2DE01C028F40A0E0401E0
:1005A000296F0001EBDE300E00240401256F1FC40B
:1005B00028F40A0E296F0001E1DE300E0024040148
:1005C000266F2451300807E1200E246F2551300892
:1005D00002E1200E256F010E2B6F0D0E2C6F000116
:1005E0008ADE200E006E002EFED700D0000024C44C
:1005F0002BF492DE25C42BF48FDE26C42BF48CDE84
:10060000C4EF03F02AC432F486DD29C432F483DD5A
:1006100028C432F480DD27C432F47DDD049C92DDF1
:10062000959E8C9E959E8C8E95928C9261EF03F098
:100630001FC428F4640E0401296F00019FDE036AC1
:100640000150F2CF27F4F29EDDDC040127BFF28EC9
:10065000216F1FC428F40A0E296F00018FDE01C02C
:1006600028F40A0E0401296F000188DE036A005095
:10067000F2CF27F4F29EC6DC040127BFF28E226F70
:100680001FC428F40A0E296F000178DE036A0050A7
:10069000F2CF27F4F29EB6DC040127BFF28E236F5F
:1006A0002151C00805E121692251C00801E12269F8
:1006B000276921C428F422C429F423C42AF40001A0
:1006C000A1D7C5EF03F0F86AD09E066A0D6A0E6ADC
:1006D0000F6A106A196AC150C00B0F09C16E070E6C
:1006E000B46E116812681368146815681668176884
:1006F000186802D5300E0401276F00017FD5CDD5D3
:1007000004012B6B2C6B0001F6DDDA0EF66E000E89
:10071000F76E0DD6800E0401286F000156DDE80E3D
:10072000F66E000EF76E19D6E80ED56ED76AD66A49
:10073000400E04012E6F0001A5DD0401206B20BFD7
:1007400003D020513F0811E3036A2051F2CF27F470
:10075000F29E000190DC040127BFF28E276F2B6F01
:100760000001DADD0401202BEAD7B50ECD6E0B0EA9
:10077000CF6EDC0ECE6EC00EF2129D80D6501F6F73
:10078000000112D6B2D6F7D653D704011F51640820
:0A07900002E2D76AD66AF2D703002E
:020000040030CA
:0E00000027CC3E1E0087A1000FC00FE00F406E
:00000001FF
;PIC18F4550
;CRC=19F6  CREATED="15-Dec-20 07:19"
