:1000000052EF03F0120FF66E000EF7220900F550C2
:1000100012000000000000000000000000000000CE
:10002000000000000000000000000000000180004F
:1000300000000000000180000000000000018000BE
:10004000000000000007E000000000000007A00022
:10005000000000000003200000000000000320005A
:10006000000000000002200000000000000230003C
:1000700000000000000230000000007F000030009F
:100080007E0000FE0007E0003F0001F80003E000F2
:100090001F8003F00001C0000FC003E00001C0009A
:1000A00007E007C00003C00003F00FC00017F40012
:1000B00001F00F80001D980000F81F0000118C0057
:1000C00000F81F0100318400807C3E06003186006C
:1000D000207C3E18007186001C3E3C4300318400A9
:1000E000C33E7C0C00118C00381E7C31001D980032
:1000F000861F78C6001FFC00631F78180003C0002D
:100100000C1FF86380018000C70FF98E000000000B
:10011000388FF838800000010C0FF8C38000000011
:10012000E38FF98E0000000030CFF838F800001F90
:100130009E0FF8E3FE00007FE38FF99FFFC003FFEF
:10014000F9CF78FFFFE007FFFF0F781FFFE007FF01
:10015000FC1F7C07FFE007FFE01F7C00FFE007FFBC
:10016000801E7C001FE007FC003E3E01CFE007F34D
:10017000803E3E01FFE003FF807C1F01FFE003FFA4
:10018000C07C1F01FFC003FFC0F80F83FFC001FF49
:10019000C0F80F83FFC001FFC1F007C3FF8001FF5C
:1001A000E3F003E3FF8001FFE7E003F7FF8000FFD8
:1001B000EFC001FFFF8000FFFF8000FFFF0000FF96
:1001C000FF80007FFF0000FFFF00003FFF0000FFF7
:1001D000FE00001FFF00007FF800000FFE00007F00
:1001E000F0000003FF00007FE0000000FFFC1FFFA5
:1001F000800000007FFFFFFE000000000FFFFFF8FF
:100200000000000001FFFFC000000000000FF00030
:100210000000000E956E966E956A8C6804680568FD
:1002200095928C9295908C90086A076A69EF03F01A
:1002300025C427F40401266B265107080EE327BFC7
:1002400002D08D9401D08D84969496908D90969046
:100250008D80D8902737262BEFD700011200956AA2
:100260008C6A04B802D08C9801D08C88959804BC14
:1002700002D08C9C01D08C8C959C04B402D08C94C0
:1002800001D08C84959495928C8255EF01F010C02A
:1002900025F4CEDF0FC025F4CBDF0EC025F4C8DF78
:1002A0000DC025F4C5DF0494DAD795968C86959613
:1002B0008C9695928C9266EF01F0040123C410F0A5
:1002C000101E24C40FF00F1E0001E1D712001A8483
:1002D0001AC023F422C424F4F0DF1A941AC023F4C1
:1002E00022C424F4EADF12001A981FC422F4EFDFBC
:1002F0001200040EEA6E1F0EE96EEF500DE0060EBE
:10030000016E006A002EFED7012EFBD77B0E006E19
:10031000002EFED7EF2EF3D7AFEF01F01A801A822E
:100320001A941A961A9A1EC41FF4DEDF100E006E7D
:10033000002EFED700000C0E04011F6F0001D4DF59
:10034000100E006E002EFED70000010E04011F6F7C
:100350000001CADF020E04011F6F0001CAD7060E9A
:1003600004011F6F0001C0DF100E006E002EFED7CB
:1003700000006EEF03F004012E513003F3CF01F0C3
:10038000F4CF00F03103F35000262F513003F35027
:100390000020026E0001120004011E5303E02069D8
:1003A0001F6902D0206B1F6B1B6A1B501F082EE3B6
:1003B0001C6A1C500F0828E32F6B1BC02EF4316BF6
:1003C000200E306F0001D7DF02C003F00150010F93
:1003D0000401216F000E0220226F036A1CC002F08C
:1003E000D8900236033602502127035022231D0ED7
:1003F0002125E96E000E2221EA6E20C4ECFFED52A9
:100400001FC4EFFF1C2AD5D71B2ACFD71D800001A0
:1004100072EF03F004012B511F0804E2800E2A271B
:10042000200E2B5F2BC41BF02A391C6E0F0E1C16DE
:100430002A510F0BFF0A100F2D6F2C2D35D02F6B6B
:100440001BC02EF4316B200E306F000194DF02C010
:1004500003F00150010F04012E6F000E02202F6FD8
:10046000036A1CC002F0D8900236033602502E27D1
:1004700003502F231D0E2E25016E000E2F21036E1B
:1004800001C0E9FFEA6E036A010E026E2D51006E93
:1004900005E0D89002360336002EFBD70250EF124B
:1004A0000350EC10EF6E39D02F6B1BC02EF4316B64
:1004B000200E306F00015FDF02C003F00150010F1A
:1004C00004012E6F000E02202F6F036A1CC002F081
:1004D000D8900236033602502E2703502F231D0ECC
:1004E0002E25016E000E2F21036E01C0E9FFEA6E7A
:1004F000036A010E026E2D51006E05E0D89002369F
:100500000336002EFBD70250FF0A006EFF0E031ABF
:100510000050EF160350EC14EF6E1D800001CDEF7C
:1005200002F00401226B236B246B266B256B236B7B
:100530001F51235D3DE21E51225D37E2080E246FFC
:1005400024532FE020512225276F21512325286F86
:1005500026C403F02551F2CF29F4F29E26C4F7FFFA
:10056000000150DD040129BFF28E296F010E245DC8
:100570002A6F29C400F02A51016E04E0D89000329D
:10058000012EFCD7000E00B0010E296F27C42AF4FB
:1005900028C42BF42C6F00013DD70401222B240723
:1005A000CFD7252BD8B4262BC6D7226B232BC0D769
:1005B000000112001A8821C422F489DE12001DA055
:1005C0006FD01B6A1B501F086AE31B50800904018F
:1005D0001E6F1F6F000188DE800E04011F6F000177
:1005E00083DE1C6A1C500F0858E304012F6B1BC0EC
:1005F0002EF4316B200E306F0001BDDE02C003F01F
:100600000150010F04011E6F000E02201F6F036ACC
:100610001CC002F0D8900236033602501E27035049
:100620001F23010E1E25016E000E1F21036E0150B7
:100630001D0FE96E000E0320EA6EEFCF1EF41EC4FC
:1006400021F40001B7DF04012F6B1BC02EF4316BC6
:10065000200E306F00018FDE02C003F00150010F49
:1006600004011E6F000E02201F6F036A1CC002F0FF
:10067000D8900236033602501E2703501F231D0E4A
:100680001E25E96E000E1F21EA6EEFCF20F420C474
:1006900021F400018FDF1C2AA5D71B2A93D71D90B8
:1006A00083EF03F0F86AD09E066A0D6A0E6A0F6A3D
:1006B000106A196AC150C00B0F09C16E070EB46EE3
:1006C0001168126813681468156816681768186846
:1006D000A0D5360E04011E6F000120D604011E6B4A
:1006E00000015AD6400E04011E6F1F6F206B216B54
:1006F000000117DF400E04011E6F1F6F206F216B7A
:0A07000000010FDF5CD7FFD70300F4
:020000040030CA
:0E00000027CC3E1E0087A1000FC00FE00F406E
:00000001FF
;PIC18F4550
;CRC=E3BE  CREATED="15-Dec-20 07:24"
