:04000000F8EF0BF01A
:08000800046ED8CF05F0E0CF33
:1000100006F00001E9CF0CF0EACF07F0E1CF08F0DD
:10002000E2CF09F0D9CF0AF0DACF0BF0F3CF12F01C
:10003000F4CF13F0FACF14F000C00EF001C00FF0AF
:1000400002C010F003C011F09DA02AEF00F09EB096
:100050007DEF01F00EC000F00FC001F010C002F003
:1000600011C003F00CC0E9FF07C0EAFF078E08C00B
:10007000E1FF09C0E2FF0AC0D9FF0BC0DAFF12C0DE
:10008000F3FF13C0F4FF14C0FAFF045006C0E0FFF2
:1000900005C0D8FF1000F2CF0DF0F29EF76AB00F46
:1000A000F66E000EF7220900F5500DBEF28E12001A
:1000B000C0F9A4B0999282F880908883C6A1868EF8
:1000C000F2CF0DF0F29EF76ADA0FF66E000EF7220D
:1000D0000900F5500DBEF28E12007FBFDFEFF7FB77
:1000E000FDFEF2CF0DF0F29EFA0FF66E000EF72233
:1000F0000900F5500DBEF28E120000000000000055
:1001000000000000000000000000000000000000EF
:1001100000000000000180000000000000018000DD
:100120000000000000018000000000000007E00067
:10013000000000000007A0000000000000032000F5
:10014000000000000003200000000000000220006A
:10015000000000000002300000000000000230003B
:100160000000007F000030007E0000FE0007E0007D
:100170003F0001F80003E0001F8003F00001C00011
:100180000FC003E00001C00007E007C00003C0008B
:1001900003F00FC00017F40001F00F80001D98005D
:1001A00000F81F0000118C0000F81F0100318400CE
:1001B000807C3E0600318600207C3E18007186005F
:1001C0001C3E3C4300318400C33E7C0C00118C007B
:1001D000381E7C31001D9800861F78C6001FFC0069
:1001E000631F78180003C0000C1FF86380018000B3
:1001F000C70FF98E00000000388FF838800000012A
:100200000C0FF8C380000000E38FF98E000000009F
:1002100030CFF838F800001F9E0FF8E3FE00007F93
:10022000E38FF99FFFC003FFF9CF78FFFFE007FFDF
:10023000FF0F781FFFE007FFFC1F7C07FFE007FFB1
:10024000E01F7C00FFE007FF801E7C001FE007FC32
:10025000003E3E01CFE007F3803E3E01FFE003FF9A
:10026000807C1F01FFE003FFC07C1F01FFC003FF74
:10027000C0F80F83FFC001FFC0F80F83FFC001FF6C
:10028000C1F007C3FF8001FFE3F003E3FF8001FF3C
:10029000E7E003F7FF8000FFEFC001FFFF8000FFF2
:1002A000FF8000FFFF0000FFFF80007FFF0000FFD6
:1002B000FF00003FFF0000FFFE00001FFF00007F67
:1002C000F800000FFE00007FF0000003FF00007F39
:1002D000E0000000FFFC1FFF800000007FFFFFFE2A
:1002E000000000000FFFFFF80000000001FFFFC04A
:1002F00000000000000FF00000000401762B0B0E40
:10030000CF6EDC0ECE6E9E9000012AEF00F04445C9
:100310004D2053503A004C43443A2044454D20531D
:10032000414E205048414D3A0000000E956E966EA9
:10033000956A8C681668176895928C9295908C9047
:100340001A6A196A5FEF0CF091C493F40401926B7E
:10035000925107080EE393BF02D08D9401D08D8493
:10036000969496908D9096908D80D8909337922BFE
:10037000EFD700011200956A8C6A16B802D08C98EB
:1003800001D08C88959816BC02D08C9C01D08C8CA6
:10039000959C16B402D08C9401D08C84959495923F
:1003A0008C82120022C091F4CFDF21C091F4CCDF07
:1003B00020C091F4C9DF1FC091F4C6DF1694DBDFC3
:1003C00095968C8695968C9695928C921200040147
:1003D00080C422F0221E81C421F0211E0001E2DF30
:1003E00012006E856EC080F47FC481F4F0DF6E95DC
:1003F0006EC080F47FC481F4EADF12006E997CC481
:100400007FF4EFDF1200040EEA6E800EE96EEF500B
:100410000DE0060E016E006A002EFED7012EFBD7FE
:100420007B0E006E002EFED7EF2EF3D712006E81EA
:100430006E836E956E976E9B7BC47CF4DFDF100E2F
:10044000006E002EFED700000C0E04017C6F000130
:10045000D5DF100E006E002EFED70000010E040145
:100460007C6F0001CBDF020E0401806F0001CBDF47
:10047000060E04017C6F0001C1DF100E006E002E1D
:10048000FED70000120004018B518D03F3CF01F061
:10049000F4CF00F08E03F35000268C518D03F350FF
:1004A0000020026E0001120004017B5303E07D690D
:1004B0007C6902D07D6B7C6B00016F6B6F511F08F4
:1004C00032E3706B70510F082CE304018C6B6FC02A
:1004D0008BF48E6B200E8D6F0001D5DF02C003F010
:1004E0000150010F04017E6F000E02207F6F036A2E
:1004F000000170C002F0D8900236033602500401A9
:100500007E2703507F23710E7E25E96E000E7F212A
:10051000EA6E7DC4ECFFED527CC4EFFF0001702B4E
:10052000D1D76F2BCBD7718178EF0CF004018851B4
:100530001F0804E2800E8727200E885F88C46FF0B2
:1005400087390001706F0F0E7017040187510F0B70
:10055000FF0A100F8A6F892D37D08C6B6FC08BF418
:100560008E6B200E8D6F00018EDF02C003F00150F4
:10057000010F04018B6F000E02208C6F036A0001D3
:1005800070C002F0D89002360336025004018B2767
:1005900003508C23710E8B25016E000E8C21036E8F
:1005A00001C0E9FFEA6E036A010E026E8A51006E15
:1005B00005E0D89002360336002EFBD70250EF122A
:1005C0000350EC10EF6E3BD08C6B6FC08BF48E6BD6
:1005D000200E8D6F000157DF02C003F00150010FA4
:1005E00004018B6F000E02208C6F036A000170C043
:1005F00002F0D89002360336025004018B270350D4
:100600008C23710E8B25016E000E8C21036E01C0B0
:10061000E9FFEA6E036A010E026E8A51006E05E080
:10062000D89002360336002EFBD70250FF0A006E28
:10063000FF0E031A0050EF160350EC14EF6E00018A
:1006400071815FEF03F004017F6B806B816B836BC3
:10065000826B806B7C51805D3DE27B517F5D37E238
:10066000080E816F81532FE07D517F25846F7E516D
:100670008025856F83C403F08251F2CF86F4F29E09
:1006800083C4F7FF00012DDD040186BFF28E866F63
:10069000010E815D876F86C400F08751016E04E012
:1006A000D8900032012EFCD7000E00B0010E866FEC
:1006B00084C487F485C488F4896F000137D70401A6
:1006C0007F2B8107CFD7822BD8B4832BC6D77F6BE4
:1006D000802BC0D7000181EF0CF06E897EC47FF4BF
:1006E00080DE120071A173D06F6B6F511F086EE333
:1006F0006F51800904017B6F7C6F00017FDE800EEB
:1007000004017C6F00017ADE706B70510F085CE3AE
:1007100004018C6B6FC08BF48E6B200E8D6F00010B
:10072000B2DE02C003F00150010F04017B6F000E26
:1007300002207C6F036A000170C002F0D89002367C
:100740000336025004017B2703507C23010E7B25D6
:10075000016E000E7C21036E0150710FE96E000ED8
:100760000320EA6EEFCF7BF47BC47EF40001B5DF9B
:1007700004018C6B6FC08BF48E6B200E8D6F0001AB
:1007800082DE02C003F00150010F04017B6F000EF6
:1007900002207C6F036A000170C002F0D89002361C
:1007A0000336025004017B2703507C23710E7B2506
:1007B000E96E000E7C21EA6EEFCF7DF47DC47EF4FD
:1007C00000018BDF702BA1D76F2B8FD7719183EF37
:1007D0000CF00900F5520CE0F6CF7BF4F7CF7CF477
:1007E000F5CF7EF47ADF7BC4F6FF7CC4F7FFF1D748
:1007F00095EF0CF004017FC420F0201E80C41FF090
:100800001F1E0001CFDD12000401728172C47FF44B
:100810007EC480F40001EEDF0401729172C47FF4A3
:100820007EC480F40001E6DF1200040172957CC4EE
:100830007EF40001E9DF200E006E002EFED700D00E
:100840000000120004017291729372857297380E43
:100850007C6F0001EADF420E006E002EFED7000022
:100860000C0E04017C6F0001E0DF420E006E002ED2
:10087000FED70000010E04017C6F0001D6DF020EDE
:100880000401806F0001BFDD060E04017C6F0001D2
:10089000CCDF420E006E002EFED7000097EF0CF06A
:1008A000040172857DC47EF40001AEDF200E006E6F
:1008B000002EFED700D0000012000900F5520CE017
:1008C000F6CF7BF4F7CF7CF4F5CF7DF4E9DF7BC482
:1008D000F6FF7CC4F7FFF1D7A3EF0CF0016A026AC0
:1008E000006A036A0401825102E1815118E0100E8E
:1008F000836FD8907F378037003603368251035C90
:1009000002E18151005C07E38151005ED8A003063B
:100910008251035ED88001360236832FEAD7000168
:10092000120080C491F410DD7FC491F40DDD7EC40B
:1009300091F40ADD7DC491F407DD169C1CDD959EC3
:100940008C9E959E8C8E95928C9255EF05F07CC472
:1009500080F47BC47FF40401826B0A0E816F000176
:10096000BDDF00C07DF4040103C07EF403C003F0CA
:100970000050F2CF7FF4F29E00014BEC00F0040136
:100980007FBFF28E1B6E7CC480F47BC47FF4826BCD
:100990000A0E816F0001A2DF02C07EF401C07DF467
:1009A00002C080F401C07FF40401826B0A0E816FE3
:1009B000000194DF00C07DF4040103C07EF403C095
:1009C00003F00050F2CF7FF4F29E00014BEC00F0F8
:1009D00004017FBFF28E1C6E7CC480F47BC47FF464
:1009E000826B640E816F000179DF02C07EF401C06A
:1009F0007DF402C080F401C07FF40401826B0A0E12
:100A0000816F00016BDF00C07DF4040103C07EF440
:100A100003C003F00050F2CF7FF4F29E00014BECD4
:100A200000F004017FBFF28E1D6E7CC480F47BC495
:100A30007FF4030E826FE80E816F00014FDF02C06A
:100A40007EF401C07DF402C080F401C07FF4040193
:100A5000826B0A0E816F000141DF00C07DF404014A
:100A600003C07EF403C003F00050F2CF7FF4F29E87
:100A700000014BEC00F004017FBFF28E1E6E1E5091
:100A8000C00809E11E681D50C00805E11D681C5022
:100A9000C00801E11C681EC07DF41DC07EF41CC0AE
:100AA0007FF41BC080F400013CD7120004017E518A
:100AB000016A7D5D03E27DC400F00CD0006A080E7F
:100AC0007F6F7D3700367E51005CD8B0006E0136F6
:100AD0007F2FF7D700011200900E04017C6F0001F8
:100AE0008DDC7BC47DF4640E04017E6F0001DEDFCB
:100AF00001C07DF40A0E04017E6F0001D7DF300EC5
:100B0000002404017C6F7E6F0001E7DD7BC47DF46F
:100B10000A0E04017E6F0001C9DF01C07DF40A0ED8
:100B200004017E6F0001C2DF300E002404017C6FDF
:100B30007E6F0001D2DD7BC47DF40A0E04017E6F5E
:100B40000001B4DF300E002404017C6F7E6F0001D1
:100B5000C4DDC00E04017C6F000167DE7BC47DF440
:100B6000640E04017E6F0001A1DF01C07DF40A0E56
:100B700004017E6F00019ADF300E002404017C6FB7
:100B80007D6F00018DDE7BC47DF40A0E04017E6F53
:100B900000018CDF01C07DF40A0E04017E6F0001AC
:100BA00085DF300E002404017C6F7D6F000178DE4C
:100BB0007BC47DF40A0E04017E6F000177DF300EE6
:100BC000002404017C6F7D6F00016ADE12000401C5
:100BD0007B517C19800B7E6F7BAF02D07B1F7B2B00
:100BE0007CAF02D07C1F7C2B7C51016A7B5D03E2D1
:100BF0007BC400F00CD0006A080E7D6F7B37003696
:100C00007C51005CD8B0006E01367D2FF7D77EAFE7
:100C100002D0011E012A0001120075C47BF40A0EE5
:100C200004017C6F0001D3DF036A0050F2CF7BF434
:100C3000F29E4BEC00F004017BBFF28E236E75C474
:100C40007BF40A0E7C6F0001C2DF036A0150F2CF11
:100C50007BF4F29E4BEC00F004017BBFF28E246E1D
:100C600074C47BF40A0E7C6F0001B1DF036A00508C
:100C7000F2CF7BF4F29E4BEC00F004017BBFF28ECE
:100C8000266E74C47BF40A0E7C6F0001A0DF036A39
:100C90000150F2CF7BF4F29E4BEC00F004017BBFDD
:100CA000F28E276E73C47BF40A0E7C6F00018FDF17
:100CB000036A0050F2CF7BF4F29E4BEC00F004018B
:100CC0007BBFF28E296E73C47BF40A0E7C6F000129
:100CD0007EDF036A0150F2CF7BF4F29E4BEC00F012
:100CE00004017BBFF28E2A6E0001B7EF0CF0040105
:100CF000772D03D02A6829680BD07751020803E1C9
:100D00002768266805D07751030802E12468236824
:100D10000001CCEF0CF0956A8C6A17BC02D08C9C59
:100D200001D08C8C959C17B802D08C9801D08C88FF
:100D3000959817B402D08C9401D08C84959495909A
:100D40008C801200036A04018251F2CF84F4F29E77
:100D5000000160EC00F0040184BFF28E016E846F2C
:100D6000841F84C491F40001A4EC01F0040183C445
:100D700084F4841F84C491F40001A4EC01F017985A
:100D8000CADF959A8C8A959A8C9A95908C90FEEFF2
:100D900006F0040181C483F4831F83C491F400012D
:100DA000A4EC01F0040182C483F4831F83C491F492
:100DB0000001A4EC01F01798AEDF959A8C8A959A01
:100DC0008C9A95908C90EAEF06F004018169826913
:100DD0000001DFD704EF07F02B6A2B50070816E35A
:100DE000036A2B50230FE96E000E0320EA6EEFCF4B
:100DF00081F42BC082F481C483F4A4D7A60E006EC4
:100E0000002EFED70000E1D72B2AE7D712009384EB
:100E100081B415D0140E0401806F000103EC02F0C0
:100E2000938481B40CD00401772B77BF04D0775121
:100E3000030801E2776B786B938481A4FDD70001EE
:100E4000D2EF0CF0938A81BA30D0140E0401806F77
:100E5000000103EC02F0938A81BA27D00401786B79
:100E60007751010A000105E0030A0BE0010A11E0D5
:100E700018D004017351170802E1736B01D0732B72
:100E800011D0040174513B0802E1746B01D0742B42
:100E900009D0040175513B0802E1756B01D0752B37
:100EA00001D00401938A81AAFDD70001D4EF0CF090
:100EB000938881B830D0140E0401806F000103ECD8
:100EC00002F0938881B827D00401786B7751010A2A
:100ED000000105E0030A0BE0010A11E018D004014B
:100EE000735303E1170E736F01D0730711D0040120
:100EF000745303E13B0E746F01D0740709D00401F1
:100F0000755303E13B0E756F01D0750701D00401E5
:100F1000938881A8FDD70001D6EF0CF08DC491F421
:100F2000A4EC01F08EC491F4A4EC01F08FC491F410
:100F3000A4EC01F090C491F4A4EC01F01698BBEC81
:100F400001F0959A8C8A959A8C9A95928C92BAEF28
:100F500007F086C489F485C48AF488C48BF487C4F6
:100F60008CF489C48DF48AC48EF48BC48FF48CC441
:100F700090F4D4D712007FC481F480C482F47EC47C
:100F800084F47DC483F482C486F481C485F484C46B
:100F900088F483C487F4DDDF12002C1E2D1E2E1E64
:100FA0002F1E2FC080F42EC07FF42DC07EF42CC0E5
:100FB0007DF4E1DF1200512A2F6A2E6A2D6A2C6A15
:100FC000336A326A316A010E306E800E376E366ACD
:100FD000356A346A3B6A3A6A396A386A3F6E3E6AF1
:100FE000416A010E406E436A426A800E476E466A4D
:100FF000496A010E486E4B6A4A6A456A446A45C0AE
:101000003DF044C03CF0200E4F6E506A100E526E00
:10101000536A4E6A576A566A556A010E546E5B6A85
:101020005A6A596A586E5F685E685D68FE0E5C6E4B
:10103000010E6C6F6D6F800E636F626B616B606B26
:10104000676F666B656B646B7F0E6B6F6A6969694E
:1010500068694D6A4C6A120004017F5306E07FC440
:1010600080F4000103EC02F004014E2A000154EF69
:1010700008F00401806B7F51805D05E20001ACDE69
:101080000401802BF8D74E2A000154EF08F0040128
:101090007E5306E17DC47FF40001DED7000104D059
:1010A0007DC47FF40001E5D712004C2C0CD04D52CA
:1010B0000AE12FC080F42EC07FF42DC07EF42CC036
:1010C0007DF459DF1BD04C50320804E14D5202E14F
:1010D00064DF14D04C50640804E14D5202E15DDF3E
:1010E0000DD04C50960804E14D5202E156DF06D077
:1010F0004C50C80803E14D5201E15DDF4C2AD8B4E1
:101100004D2A7BC47DF47CC47EF4C1DFFAEF0CF081
:101110004E501F0826E32FC080F42EC07FF42DC050
:101120007EF42CC07DF427DFD8902C3404017E6F30
:101130002D347F6F2E34806F2F34816F010E7E250A
:101140002C6E000E7F212D6E000E80212E6E000E63
:1011500081212F6E7BC47DF47CC47EF4000197DF77
:1011600018D04E503F0814E32FC080F42EC07FF4F7
:101170002DC07EF42CC07DF4FEDED8902C362D36AA
:101180002E362F367BC47DF47CC47EF480DF01D004
:1011900012DF05EF0DF04E501F0821E32FC080F441
:1011A0002EC07FF42DC07EF42CC07DF4E4DED890F8
:1011B0002F300401816F2E30806F2D307F6F2C30E7
:1011C0002C6E7FC42DF080C42EF0800E81252F6EF2
:1011D0007BC47DF47CC47EF4000159DF18D04E50EE
:1011E0003F0814E32FC080F42EC07FF42DC07EF49E
:1011F0002CC07DF4C0DED8902F322E322D322C320E
:101200007BC47DF47CC47EF442DF01D0D4DE10EFD9
:101210000DF04E500F0824E345C086F444C085F419
:101220003DC088F43CC087F494DED8904434040177
:101230007D6F45347E6F010E7D25446E000E7E214C
:10124000456ED8903D307E6F3C303C6E800E7E25E2
:101250003D6E7BC47DF47CC47EF4000118DF19D0A0
:101260004E501F0815E345C086F444C085F43DC0C8
:1012700088F43CC087F46DDED89044364536D8906B
:101280003D323C327BC47DF47CC47EF400DF01D06F
:1012900092DE1BEF0DF04E500F0824E345C086F49C
:1012A00044C085F43DC088F43CC087F452DED89039
:1012B000453004017E6F4430446E800E7E25456EBD
:1012C000D8903C347D6F3D347E6F010E7D253C6EA1
:1012D000000E7E213D6E7BC47DF47CC47EF4000153
:1012E000D6DE19D04E501F0815E345C086F444C021
:1012F00085F43DC088F43CC087F42BDED89045329D
:101300004432D8903C363D367BC47DF47CC47EF4B8
:10131000BEDE01D050DE25EF0DF04FBE3DD04F5068
:1013200000083AE25050800A006E4F50800A005C7C
:1013300020E2385030102C6E395031102D6E3A505A
:1013400032102E6E3B5033102F6E2FC080F42EC003
:101350007FF42DC07EF42CC07DF40DDE7BC47DF4C3
:101360007CC47EF494DED890303631363236333653
:10137000502A4F50505C0FE14F06506A2FC03BF08F
:101380002EC03AF02DC039F02CC038F0336A326AE2
:10139000316A010E306E01D00EDE2FEF0DF06CBF02
:1013A00003D06C5120083CE36DBF24D06D51000880
:1013B00021E2D89060376137623763376851601136
:1013C0002C6E695161112D6E6A5162112E6E6B5136
:1013D00063112F6E2FC080F42EC07FF42DC07EF4D9
:1013E0002CC07DF4C8DD7BC47DF47CC47EF44FDE6C
:1013F0006D0715D06C2B6CC06DF0D89067336633D9
:1014000065336433D8906B336A336933683367C0AC
:1014100063F066C062F065C061F064C060F001D046
:10142000CADD39EF0DF04FBE3DD04F5000083AE213
:101430005050800A006E4F50800A005C20E2385005
:1014400034102C6E395035102D6E3A5036102E6EE9
:101450003B5037102F6E2FC080F42EC07FF42DC06C
:101460007EF42CC07DF487DD7BC47DF47CC47EF4E7
:101470000EDED8903732363235323432502A4F5061
:10148000505C0FE14F06506A2FC03BF02EC03AF07F
:101490002DC039F02CC038F0800E376E366A356AB0
:1014A000346A01D088DD43EF0DF06CBF03D06C517E
:1014B00020083CE36DBF24D06D51000821E2D89094
:1014C00057325632553254325C5054102C6E5D50A7
:1014D00055102D6E5E5056102E6E5F5057102F6EA9
:1014E0002FC080F42EC07FF42DC07EF42CC07DF47C
:1014F00042DD7BC47DF47CC47EF4C9DD6D0715D06C
:101500006C2B6CC06DF0D890583659365A365B3615
:10151000D8905C365D365E365F365BC057F05AC099
:1015200056F059C055F058C054F001D044DD4DEF8D
:101530000DF04E500F081CE33DC086F43CC085F40E
:101540003DC088F43CC087F404DDD8903C340401ED
:101550007D6F3D347E6F010E7D253C6E000E7E2139
:101560003D6E7BC47DF47CC47EF4000190DD16D01A
:101570004E501F0812E33DC086F43CC085F43DC0C8
:1015800088F43CC087F4E5DCD8903C363D367BC41B
:101590007DF47CC47EF47BDD01D00DDD57EF0DF0D2
:1015A0004E500F0819E345C086F444C085F445C089
:1015B00088F444C087F4CDDCD890453004017E6FB8
:1015C0004430446E800E7E25456E7BC47DF47CC421
:1015D0007EF400015CDD16D04E501F0812E345C0BA
:1015E00086F444C085F445C088F444C087F4B1DC77
:1015F000D890453244327BC47DF47CC47EF447DD10
:1016000001D0D9DC61EF0DF04E5219E12F6A2E6A3C
:101610002D6A010E2C6E2FC080F42EC07FF42DC0D9
:101620007EF42CC07DF4A7DCD8902C362D362E36D7
:101630002F367BC47DF47CC47EF429DD18D04E5057
:10164000200814E32FC080F42EC07FF42DC07EF458
:101650002CC07DF490DCD8902C362D362E362F36CB
:101660007BC47DF47CC47EF412DD01D0A4DC6BEF7E
:101670000DF04E5219E1800E2F6E2E6A2D6A2C6AE3
:101680002FC080F42EC07FF42DC07EF42CC07DF4DA
:1016900072DCD8902F322E322D322C327BC47DF466
:1016A0007CC47EF4F4DC18D04E50200814E32FC024
:1016B00080F42EC07FF42DC07EF42CC07DF45BDC62
:1016C000D8902F322E322D322C327BC47DF47CC444
:1016D0007EF4DDDC01D06FDC75EF0DF052BE3FD043
:1016E000525000083CE25350800A006E5250800A6B
:1016F000005C21E24A504810446E4B504910456E40
:1017000042503E103C6E43503F103D6E3DC086F44B
:101710003CC085F445C088F444C087F41ADC7BC41F
:101720007DF47CC47EF4B3DCD89048364936D8903A
:101730003F323E32532A5250535C10E15206536AF4
:101740003DC043F03CC042F045C04BF044C04AF0BD
:10175000496A010E486E800E3F6E3E6A01D02BDC56
:101760007FEF0DF052BE40D0525000083DE2535082
:10177000800A006E5250800A005C22E24A504610F5
:10178000446E4B504710456E425040103C6E4350E3
:1017900041103D6E3DC086F43CC085F445C088F4E0
:1017A00044C087F4A9EC07F07BC47DF47CC47EF4CC
:1017B0006EDCD89047324632D89040364136532AB4
:1017C0005250535C10E15206536A3DC043F03CC096
:1017D00042F045C04BF044C04AF0800E476E466A66
:1017E000416A010E406E02D0DBEC07F089EF0DF08C
:1017F000F86AD09E078E186A1F6A206A216A226AD8
:101800002B6A2F6A2E6A2D6A2C6A336A326A316A11
:10181000010E306E800E376E366A356A346A3B6A66
:101820003A6A396A386A3F6E3E6A416A010E406E12
:10183000436A426A800E476E466A496A010E486EE4
:101840004B6A4A6A4D6A4C6A4E6A200E4F6E506A65
:10185000010E516E100E526E536A576A566A556ADF
:10186000010E546E5B6A5A6A596A586E5F685E6808
:101870005D68FE0E5C6E800E636F626B616B606B09
:10188000676F666B656B646B7F0E6B6F6A69696906
:101890006869010E6C6F6D6F0401786BC150C00BED
:1018A0000F09C16E070EB46E236824682568266888
:1018B0002768286829682A68000195EF01F0B50EAD
:1018C000CD6E0B0ECF6EDC0ECE6EC00EF2129D8072
:1018D0000401766B756B746B736B776B360E7B6F75
:1018E000000117EC02F004017B6B000154EF02F0E1
:1018F000400E04017B6F7C6F7D6F7E6B000123EFD8
:1019000003F072EF03F0300E04017B6F000117EC5F
:1019100002F0800E04017C6F0001FEEC01F00E0E5F
:10192000F66E030EF76EE9EF03F022EF04F0800E7F
:1019300004017C6F000115EC04F0160EF66E030E28
:10194000F76E5DEF04F0E80ED56ED76AD66A040133
:10195000796B79C47AF47C6B79C47BF40001A7ECD1
:1019600004F079C47BF46CEC05F00DEF06F0040193
:1019700076BF04D076510908D8A0D4D076BF03D062
:10198000765104080AE3938A81AA07D0938681A638
:1019900004D0000177EF06F004010001ECEC06F042
:1019A00007EF07F022EF07F058EF07F0D6500401D9
:1019B000796F7A51795D15E079C47AF479C47BF452
:1019C00000016CEC05F004017C6B79C47BF4000130
:1019D000A7EC04F004017951640803E2D76A010E10
:1019E000D66E512C08D0020E7B6F010E7C6F000169
:1019F00055EF08F004015150020808E1050E7B6F15
:101A0000010E7C6F000188EF08F0040151500308BB
:101A100008E1050E7B6F010E7C6F0001CBEF08F033
:101A200004015150040808E1050E7B6F010E7C6F24
:101A3000000109EF09F004015150050807E1050E06
:101A40007B6F010E7C6F000126D404015150060803
:101A500007E1050E7B6F010E7C6F00015ED404016F
:101A60005150070807E1050E7B6F010E7C6F0001E6
:101A700096D404015150080807E1050E7B6F010E52
:101A80007C6F0001D0D404015150090807E1050E14
:101A90007B6F010E7C6F000108D5040151500A08CC
:101AA00007E1050E7B6F010E7C6F000142D504013A
:101AB00051500B0807E1050E7B6F010E7C6F000192
:101AC0006FD5040151500C0807E1050E7B6F010E24
:101AD0007C6F000199D5040151500D0807E1050EF6
:101AE0007B6F010E7C6F0001C4D5040151500E08BC
:101AF00007E1050E7B6F010E7C6F0001EFD504013D
:101B000051500F0807E1050E7B6F010E7C6F00013D
:101B100029D6040151BE05D051500F0802E2010E32
:101B2000516E16D00A0E765F782B7851140801E1B9
:101B3000776B752B75513C080BE1756B742B7451E9
:101B40003C0806E1746B732B7351180801E1736B49
:061B500000010BD70300A9
:020000040030CA
:0E00000027CC3E1E0087A1000FC00FE00F406E
:00000001FF
;PIC18F4550
;CRC=66BD  CREATED="05-Jan-21 07:49"
