:0400000001EF04F018
:08000800046ED8CF05F0E0CF33
:1000100006F00001E9CF0CF0EACF07F0E1CF08F0DD
:10002000E2CF09F0D9CF0AF0DACF0BF0F3CF12F01C
:10003000F4CF13F0FACF14F000C00EF001C00FF0AF
:1000400002C010F003C011F09DA02AEF00F09EB096
:1000500078EF00F00EC000F00FC001F010C002F009
:1000600011C003F00CC0E9FF07C0EAFF078E08C00B
:10007000E1FF09C0E2FF0AC0D9FF0BC0DAFF12C0DE
:10008000F3FF13C0F4FF14C0FAFF045006C0E0FFF2
:1000900005C0D8FF1000F2CF0DF0F29EF76AB00F46
:1000A000F66E000EF7220900F5500DBEF28E12001A
:1000B000070F1F1F1F1F1F1F1F1F1F000000000013
:1000C0001C1E1F1F1F1F1F1F00000000001F1F1FDF
:1000D0001F1F1F1F1F1F1E1C1F1F1F1F1F1F0F075C
:1000E0001F1F1F0000001F1F1F1F1F1F1F1F1F1F7D
:1000F0000B0ECF6EDC0ECE6E382A9E902AEF00F0EB
:10010000202020002020200020202000202020006F
:100110002020200020202000434C4F434B3A000079
:10012000000E956E966E956A8C68166817689592A3
:100130008C9295908C901A6A196A19EF04F03FC05E
:1001400041F0406A405007080EE341BE02D08D9452
:1001500001D08D84969496908D9096908D80D890B5
:100160004136402AEFD71200956A8C6A16B802D041
:100170008C9801D08C88959816BC02D08C9C01D0AC
:100180008C8C959C16B402D08C9401D08C84959460
:1001900095928C82DAEF00F022C03FF0D0DF21C0D0
:1001A0003FF0CDDF20C03FF0CADF1FC03FF0C7DF08
:1001B0001694DAD795968C8695968C9695928C9215
:1001C000E9EF00F03D50206E201E3EC01FF01F1EC4
:1001D000E3D712002C802CC03DF03CC03EF0F2DF93
:1001E0002C902CC03DF03CC03EF0ECDF12002C9473
:1001F0003AC03CF0EFDF200E006E002EFED700D09C
:1002000000001200EA6A3A0EE96EEF500DE0060EA9
:10021000016E006A002EFED7012EFBD77B0E006E0A
:10022000002EFED7EF2EF3D712002C843BC03CF0FB
:10023000D1DF200E006E002EFED700D0000012008D
:100240002C902C922C842C96380E3A6ED0DF420ED5
:10025000006E002EFED700000C0E3A6EC8DF420E74
:10026000006E002EFED70000010E3A6EC0DF020EB7
:100270003A6EC8DF060E3A6EBADF420E006E002EEE
:10028000FED70000400E3A6EB2DF396A39503F089F
:100290000DE3036A3950F2CF3AF0F29EFCDE3ABE2B
:1002A000F28E3A6E3B6EC1DF392AF0D71AEF04F0B6
:1002B0000900F5520CE0F6CF39F0F7CF3AF0F5CF60
:1002C0003BF0B3DF39C0F6FF3AC0F7FFF1D71200B9
:1002D000080E016E00008A929392000039368A90CF
:1002E000D8B09380D8A09390938281A2FED7012E9C
:1002F000F1D700008A9293920000938000000000E2
:10030000938281A2FED7016A000081B001808A92A7
:1003100093928A9093901200080E3A6E00C03BF0C0
:1003200093800000938281A2FED781B0D88081A003
:10033000D8900136000093928A923A2EF1D793809A
:1003400000008A903B50D8A493900000938281A231
:10035000FED700008A92939200008A909390120038
:100360009380050E006E002EFED79382060E006E5F
:10037000002EFED78A909390050E006E002EFED7B9
:100380008A929392D00E396EA3DF396AA1DF9380EF
:10039000050E006E002EFED79382060E006E002E14
:1003A000FED781A2FED78A909390050E006E002E94
:1003B000FED78A929392D10E396E8ADF010E006EBB
:1003C000ABDF01C033F0010E006EA6DF01C032F0DA
:1003D000010E006EA1DF01C031F0010E006E9CDF46
:1003E00001C030F0010E006E97DF01C02FF0010E4A
:1003F000006E92DF01C02EF0010E006E8DDF01C095
:100400002DF0010E006E88DF01C035F0006A84DF38
:1004100001C034F093900000938281A2FED7050EB4
:10042000006E002EFED700D000009380050E006EF7
:10043000002EFED71200336A300E326E130E316E6C
:10044000060E306E130E2F6E060E2E6E160E2D6ECD
:10045000900E356E980E346E27EF04F09380050EE3
:10046000006E002EFED79382060E006E002EFED781
:100470008A909390050E006E002EFED78A9293927A
:10048000D00E396E25DF396A23DF33C039F020DF23
:1004900032C039F01DDF31C039F01ADF30C039F019
:1004A00017DF2FC039F014DF2EC039F011DF2DC057
:1004B00039F00EDF35C039F00BDF34C039F008DF1A
:1004C00093900000938281A2FED7050E006E002E4D
:1004D000FED700D000009380050E006E002EFED7E0
:1004E00012008A0E3A6E83DE300E3724396E3B6E70
:1004F0009CDE1200938481B410D0140E3A6E82DE1A
:10050000938481B40AD03750050802E3372A01D01A
:10051000376AE7DF938481A4FDD7B8EF03F039C0D1
:100520003AF00F0E391639500A0802E1060E3A2643
:100530003AC001F01200CC0E3A6E59DE3138006E2E
:100540000F0E00160050300F396E3B6E6EDE3150CC
:100550000F0B300F396E3B6E68DE200E3B6E65DE92
:100560003238006E0F0E00160050300F396E3B6EA1
:100570005CDE32500F0B300F396E3B6E56DE200EB4
:100580003B6E53DE3338006E0F0E00160050300FF6
:10059000396E3B6E4ADE33500F0B300F396E3B6EB7
:1005A00044DE12005BDFC7DF1200938A81BA67D096
:1005B000140E3A6E27DE938A81BA61D03750010A51
:1005C0000BE0030A16E0010A21E0070A2CE0010A09
:1005D00038E0030A44E050D03350590802E1336A4E
:1005E00006D0332A33C039F09ADF01C033F0DADFA6
:1005F00043D03250590802E1326A06D0322A32C062
:1006000039F08DDF01C032F0CDDF36D03150230814
:1006100002E1316A06D0312A31C039F080DF01C0F1
:1006200031F0C0DF29D02F50310803E1010E2F6EC9
:1006300006D02F2A2FC039F072DF01C02FF0B2DFB1
:100640001BD02E50120803E1010E2E6E06D02E2A6A
:100650002EC039F064DF01C02EF0A4DF0DD02D5084
:10066000990802E12D6A06D02D2A2DC039F057DFF6
:1006700001C02DF097DF00D0938A81AAFDD7B9EF92
:1006800003F039C03AF00F0E391639500F0802E165
:10069000060E3A5E3AC001F01200938881B865D028
:1006A000140E3A6EAFDD938881B85FD03750010ADF
:1006B0000BE0030A16E0010A21E0070A2CE0010A18
:1006C00037E0030A42E04ED0335203E1590E336E55
:1006D00006D0330633C039F0D4DF01C033F062DF17
:1006E00041D0325203E1590E326E06D0320632C08A
:1006F00039F0C7DF01C032F055DF34D0315203E1A9
:10070000230E316E06D0310631C039F0BADF01C098
:1007100031F048DF27D02F5203E1310E2F6E06D083
:100720002F062FC039F0ADDF01C02FF03BDF1AD00C
:100730002E2C03D0120E2E6E06D02E062EC039F0AF
:10074000A0DF01C02EF02EDF0DD02D5203E1990E57
:100750002D6E06D02D062DC039F093DF01C02DF08F
:1007600021DF00D0938881A8FDD7BAEF03F0C2D66D
:100770001CD793D712003750010A0BE0030A12E08E
:10078000010A19E0070A20E0010A27E0030A2EE027
:1007900036D0910E3A6E2BDD000EF66E010EF76E1E
:1007A00087DD2DD08E0E3A6E22DD040EF66E010E20
:1007B000F76E7EDD24D08B0E3A6E19DD080EF66ED4
:1007C000010EF76E75DD1BD0CC0E3A6E10DD0C0EEF
:1007D000F66E010EF76E6CDD12D0CE0E3A6E07DDAE
:1007E000100EF66E010EF76E63DD09D0D10E3A6E73
:1007F000FEDC140EF66E010EF76E5ADD00D044EFEB
:1008000004F0F86AD09E078E186A1F6A206A216A6F
:10081000226A2B6AC150C00B0F09C16E070EB46E5D
:1008200023682468256826682768286829682A6854
:1008300077D406D5800E3A6EDADC180EF66E010E0D
:10084000F76E36DD8DDD3450980802E0F4D506DE13
:10085000376A47DE85DD33C036F0B50ECD6E0B0E40
:10086000CF6EDC0ECE6EC00EF2129D80385009089D
:100870000CE376DD7CDF375205E03850040802E3F4
:100880007AD702D02EDE57DE06D00A0E385E68DD3B
:0A0890006EDF27DE50DEEAD703001A
:020000040030CA
:0E00000027CC3E1E0087A1000FC00FE00F406E
:00000001FF
;PIC18F4550
;CRC=A1AA  CREATED="29-Dec-20 11:07"
