:100000008CEF00F0000E956E966E956A8C68046811
:10001000056895928C9295908C90086A076AA3EF78
:1000200000F036C038F0376A375007080EE338BEA4
:1000300002D08D9401D08D84969496908D90969058
:100040008D80D8903836372AEFD71200956A8C6A9F
:1000500004B802D08C9801D08C88959804BC02D04A
:100060008C9C01D08C8C959C04B402D08C9401D0D3
:100070008C84959495928C824CEF00F032C036F0CF
:10008000D0DF33C036F0CDDF34C036F0CADF35C044
:1000900036F0C7DF0498DAD7959A8C8A959A8C9AAD
:1000A00095928C9265EF00F02BC02EF02AC02FF0B5
:1000B0002DC030F02CC031F02EC032F02FC033F004
:1000C00030C034F031C035F0D9D778EF00F024C01B
:1000D00026F025C027F023C029F022C028F027C031
:1000E0002BF026C02AF029C02DF028C02CF0DCD738
:1000F0001200EA6A230EE96EEF500DE0060E016E63
:10010000006A002EFED7012EFBD77B0E006E002E5C
:10011000FED7EF2EF3D71200F86AD09E066A0D6A5A
:100120000E6A0F6A106A196AC150C00B0F09C16EBE
:10013000070EB46E116812681368146815681668A3
:10014000176818685FD7216A206A1F6A1E6A21C073
:1001500025F020C024F01FC023F01EC022F0B7DF1E
:100160001D6A1C6A1B6A1A6A1D523CE11C523AE164
:100170001B5238E11A501F0835E321C025F020C07A
:1001800024F01FC023F01EC022F0A1DF040E226E57
:10019000FA0E236EAEDF222EFBD71E34236E1F34E1
:1001A000246E2034256E2134266E233624362536DF
:1001B00026362336243625362636F80E2316380EF4
:1001C00024121E6A2450F80B1F6E25501F0B206E40
:1001D000216A010E1A26D8B01B2AD8B41C2AD8B41A
:1001E0001D2AC2D71D6A1C6A1B6A1A6A1D523CE18D
:1001F0001C523AE11B5238E11A501F0835E321C066
:1002000025F020C024F01FC023F01EC022F05FDFC5
:10021000040E226EFA0E236E6CDF222EFBD72130E5
:10022000266E2030256E1F30246E1E30236E26323F
:1002300025322432233226322532243223321F0E35
:1002400026161E0E25121E6A2450F80B1F6E25500E
:100250001F0B206E216A010E1A26D8B01B2AD8B4B3
:0C0260001C2AD8B41D2AC2D77BD703008B
:020000040030CA
:0E00000027CC3E1E0087A1000FC00FE00F406E
:00000001FF
;PIC18F4550
;CRC=C37E  CREATED="30-Nov-20 17:01"
