:04000000F5EF01F027
:08000800046ED8CF05F0E0CF33
:1000100006F00001E9CF0CF0EACF07F0E1CF08F0DD
:10002000E2CF09F0D9CF0AF0DACF0BF0F3CF12F01C
:10003000F4CF13F0FACF14F000C00EF001C00FF0AF
:1000400002C010F003C011F09DA02AEF00F09EB096
:1000500071EF00F00EC000F00FC001F010C002F010
:1000600011C003F00CC0E9FF07C0EAFF078E08C00B
:10007000E1FF09C0E2FF0AC0D9FF0BC0DAFF12C0DE
:10008000F3FF13C0F4FF14C0FAFF045006C0E0FFF2
:1000900005C0D8FF1000F2CF0DF0F29EF76AB00F46
:1000A000F66E000EF7220900F5500DBEF28E12001A
:1000B000C0F9A4B0999282F880908883C6A1868EF8
:1000C000F2CF0DF0F29EF76ADA0FF66E000EF7220D
:1000D0000900F5500DBEF28E12007FBFDFEFF7FB77
:1000E000FDFE2F2A0B0ECF6EDC0ECE6E9E902AEFF9
:1000F00000F0000E956E966E956A8C68166817680B
:1001000095928C9295908C901A6A196A0DEF02F074
:1001100031503218800B346E31AE02D0311E312A8C
:1001200032AE02D0321E322A3250016A315C03E212
:1001300031C000F00CD0006A080E336E3136003644
:100140003250005CD8B0006E0136332EF7D734AE93
:1001500002D0011E012A12002EC031F00A0E326EAA
:10016000D7DF036A0050F2CF31F0F29E94DF31BE48
:10017000F28E236E2EC031F00A0E326EC9DF036A92
:100180000150F2CF31F0F29E86DF31BEF28E246E46
:100190002DC031F00A0E326EBBDF036A0050F2CF81
:1001A00031F0F29E78DF31BEF28E266E2DC031F036
:1001B0000A0E326EADDF036A0150F2CF31F0F29ECB
:1001C0006ADF31BEF28E276E2CC031F00A0E326E1D
:1001D0009FDF036A0050F2CF31F0F29E5CDF31BE48
:1001E000F28E296E2CC031F00A0E326E91DF036A56
:1001F0000150F2CF31F0F29E4EDF31BEF28E2A6E08
:10020000302C02D0299E09D03050020802E1269EEF
:1002100004D03050030801E1239E120035C037F0AE
:10022000366A365007080EE337BE02D08D9401D0EF
:100230008D84969496908D9096908D80D890373638
:10024000362AEFD71200956A8C6A17BC02D08C9CB4
:1002500001D08C8C959C17B802D08C9801D08C88DA
:10026000959817B402D08C9401D08C849594959075
:100270008C801200036A3250F2CF34F0F29E20DFFD
:1002800034BEF28E016E346E341E34C035F0C6DFDB
:1002900033C034F0341E34C035F0C0DF1798D3DFDC
:1002A000959A8C8A959A8C9A95908C908FEF01F004
:1002B0003150336E331E33C035F0B0DF32C033F00F
:1002C000331E33C035F0AADF1798BDDF959A8C8AAC
:1002D000959A8C9A95908C9071EF01F03168326804
:1002E000E7D795EF01F02B6A2B50070820E3036A4C
:1002F0002B50230FE96E000E0320EA6EEF3C01D075
:1003000014D0036A2B50230FE96E000E0320EA6E0F
:10031000EFCF31F02BC032F031C033F0ABD7A60EA7
:10032000006E002EFED70000D9D72B2ADDD7120091
:10033000938481B40AD0302A3050030801E2306A35
:100340000BDFD1DF938481A4FCD723EF02F0938AE3
:1003500081BA22D03050010A05E0030A0AE0010AFE
:100360000FE015D02C50170802E12C6A01D02C2A7E
:100370000ED02D503B0802E12D6A01D02D2A07D066
:100380002E503B0802E12E6A01D02E2A00D0E4DE76
:10039000AADF938A81AAFCD724EF02F0938881B860
:1003A00022D03050010A05E0030A0AE0010A0FE0FA
:1003B00015D02C5203E1170E2C6E01D02C060ED056
:1003C0002D5203E13B0E2D6E01D02D0607D02E528B
:1003D00003E13B0E2E6E01D02E0600D0BDDE83DF82
:1003E000938881A8FCD725EF02F0F86AD09E078E8B
:1003F000186A1F6A206A216A226A2B6AC150C00BE0
:100400000F09C16E070EB46E23682468256826683C
:100410002768286829682A686CD6B50ECD6E0B0E41
:10042000CF6EDC0ECE6EC00EF2129D802F6A2E6A49
:100430002D6A2C6A306A90DE2FBE03D02F50090837
:1004400005E351DF75D783D7A9D711D00A0E2F5EE8
:100450002E2A2E503C080BE12E6A2D2A2D503C08E6
:1004600006E12D6A2C2A2C50180801E12C6AE3D7EA
:02047000030087
:020000040030CA
:0E00000027CC3E1E0087A1000FC00FE00F406E
:00000001FF
;PIC18F4550
;CRC=C5FD  CREATED="10-Nov-20 08:23"
