:10000000C5EF00F0000E956E966E956A8C680468D8
:10001000056895928C9295908C90086A076ADCEF3F
:1000200000F028C02AF0296A295007080EE32ABEEA
:1000300002D08D9401D08D84969496908D90969058
:100040008D80D8902A36292AEFD71200956A8C6ABB
:1000500004B802D08C9801D08C88959804BC02D04A
:100060008C9C01D08C8C959C04B402D08C9401D0D3
:100070008C84959495928C824CEF00F024C028F0EB
:10008000D0DF25C028F0CDDF26C028F0CADF27C08A
:1000900028F0C7DF0498DAD7959A8C8A959A8C9ABB
:1000A00095928C921200EA6A1C0EE96EEF500DE0F8
:1000B000060E016E006A002EFED7012EFBD77B0EC6
:1000C000006E002EFED7EF2EF3D712001DC020F0D9
:1000D0001CC021F01FC022F01EC023F020C024F05D
:1000E00021C025F022C026F023C027F0C7DF120070
:1000F000938A81BA1BD0140E1C6ED5DF938A81BA05
:1001000015D0D8901A341C6E1B341D6E010E1C24A1
:100110001A6E000E1D201B6E1D6A1C6A1BC01FF08C
:100120001AC01EF0D3DF938A81AAFDD7E6EF00F054
:10013000938881B813D0140E1C6EB5DF938881B8F4
:100140000DD0D8901B321A321D6A1C6A1BC01FF0DA
:100150001AC01EF0BBDF938881A8FDD7E7EF00F03F
:10016000938681B610D0140E1C6E9DDF938681B6E7
:100170000AD01B6A1A6A1D6A1C6A1F6A1E6AA6DFF9
:10018000938681A6FDD7E8EF00F0F86AD09E066A54
:100190000D6A0E6A0F6A106A196AC150C00B0F0906
:1001A000C16E070EB46E1168126813681468156882
:1001B00016681768186826D73C0E936E1B6A1A6A71
:1001C000246A256A266A276A59DF92D7B1D7C8D729
:0401D000FCD7030055
:020000040030CA
:0E00000027CC3E1E0087A1000FC00FE00F406E
:00000001FF
;PIC18F4550
;CRC=4C99  CREATED="13-Oct-20 07:35"
