:1000000068EF00F0000E956E966E956A8C68046835
:10001000056895928C9295908C90086A076A7FEF9C
:1000200000F01EC020F01F6A1F5007080EE320BE1C
:1000300002D08D9401D08D84969496908D90969058
:100040008D80D89020361F2AEFD71200956A8C6ACF
:1000500004B802D08C9801D08C88959804BC02D04A
:100060008C9C01D08C8C959C04B402D08C9401D0D3
:100070008C84959495928C824CEF00F01AC01EF0FF
:10008000D0DF1BC01EF0CDDF1CC01EF0CADF1DC0BC
:100090001EF0C7DF0498DAD7959A8C8A959A8C9AC5
:1000A00095928C9286EF00F0EA6A1A0EE96EEF5094
:1000B0000DE0060E016E006A002EFED7012EFBD762
:1000C0007B0E006E002EFED7EF2EF3D789EF00F0E7
:1000D000F86AD09E066A0D6A0E6A0F6A106A196A7B
:1000E000C150C00B0F09C16E070EB46E11681268C3
:1000F00013681468156816681768186883D71A6A31
:100100001F0E1B6EF80E1C6E1D6AB8D7C80E1A6E35
:06011000CBD7F5D7030078
:020000040030CA
:0E00000027CC3E1E0087A1000FC00FE00F406E
:00000001FF
;PIC18F4550
;CRC=8349  CREATED="30-Nov-20 15:43"
