:040000008DEF01F08F
:08000800046ED8CF05F0E0CF33
:1000100006F00001E9CF0CF0EACF07F0E1CF08F0DD
:10002000E2CF09F0D9CF0AF0DACF0BF0F3CF12F01C
:10003000F4CF13F0FACF14F000C00EF001C00FF0AF
:1000400002C010F003C011F09DA02AEF00F09EB096
:1000500071EF00F00EC000F00FC001F010C002F010
:1000600011C003F00CC0E9FF07C0EAFF078E08C00B
:10007000E1FF09C0E2FF0AC0D9FF0BC0DAFF12C0DE
:10008000F3FF13C0F4FF14C0FAFF045006C0E0FFF2
:1000900005C0D8FF1000F2CF0DF0F29EF76AB00F46
:1000A000F66E000EF7220900F5500DBEF28E12001A
:1000B000C0F9A4B0999282F880908883C6A1868EF8
:1000C000F2CF0DF0F29EF76ADA0FF66E000EF7220D
:1000D0000900F5500DBEF28E12007FBFDFEFF7FB77
:1000E000FDFE2F2A0B0ECF6EDC0ECE6E9E902AEFF9
:1000F00000F0000E956E966E956A8C68166817680B
:1001000095928C9295908C901A6A196AA5EF01F0DD
:1001100030503118800B336E30AE02D0301E302A92
:1001200031AE02D0311E312A3150016A305C03E217
:1001300030C000F00CD0006A080E326E3036003647
:100140003150005CD8B0006E0136322EF7D733AE96
:1001500002D0011E012A12002CC030F00A0E316EAE
:10016000D7DF036A0050F2CF30F0F29E94DF30BE4A
:10017000F28E236E2CC030F00A0E316EC9DF036A96
:100180000150F2CF30F0F29E86DF30BEF28E246E48
:100190002DC030F00A0E316EBBDF036A0050F2CF83
:1001A00030F0F29E78DF30BEF28E266E2DC030F039
:1001B0000A0E316EADDF036A0150F2CF30F0F29ECD
:1001C0006ADF30BEF28E276E2EC030F00A0E316E1E
:1001D0009FDF036A0050F2CF30F0F29E5CDF30BE4A
:1001E000F28E296E2EC030F00A0E316E91DF036A56
:1001F0000150F2CF30F0F29E4EDF30BEF28E2A6E0A
:10020000B3EF01F034C036F0356A355007080EE31D
:1002100036BE02D08D9401D08D84969496908D90A8
:1002200096908D80D8903636352AEFD71200956A91
:100230008C6A17BC02D08C9C01D08C8C959C17B812
:1002400002D08C9801D08C88959817B402D08C94E9
:1002500001D08C84959495908C801200036A315063
:10026000F2CF33F0F29E2CDF33BEF28E016E336E8E
:10027000331E33C034F0C6DF32C033F0331E33C018
:1002800034F0C0DF1798D3DF959A8C8A959A8C9AB0
:1002900095908C9083EF01F03050326E321E32C058
:1002A00034F0B0DF31C032F0321E32C034F0AADF99
:1002B0001798BDDF959A8C8A959A8C9A95908C9018
:1002C00065EF01F030683168E7D789EF01F02B6AFC
:1002D0002B50070820E3036A2B50230FE96E000E12
:1002E0000320EA6EEF3C01D014D0036A2B50230F99
:1002F000E96E000E0320EA6EEFCF30F02BC031F034
:1003000030C032F0ABD7A60E006E002EFED7000034
:10031000D9D72B2ADDD7CAEF01F0F86AD09E078E15
:10032000186A1F6A206A216A226A2B6AC150C00BB0
:100330000F09C16E070EB46E23682468256826680D
:100340002768286829682A68D4D6B50ECD6E0B0EAA
:10035000CF6EDC0ECE6EC00EF2129D802C6A2D6A1E
:100360002E6A2F6AF9D62FBE03D02F50090802E358
:10037000AED710D00A0E2F5E2C2A2C503C080AE172
:100380002C6A2D2A2D503C0805E12D6A2E503C0880
:0803900001E12E6AE7D703002A
:020000040030CA
:0E00000027CC3E1E0087A1000FC00FE00F406E
:00000001FF
;PIC18F4550
;CRC=77C4  CREATED="10-Nov-20 08:20"
