:100000003EEF01F0F76A140FF66E000EF7220900BA
:10001000F550120080C094D4444F4E4720484F3AC8
:100020000000000E956E966E956A8C6804680568EF
:1000300095928C9295908C90086A076A55EF01F022
:1000400024C026F0256A255007080EE326BE02D0FC
:100050008D9401D08D84969496908D9096908D80FD
:10006000D8902636252AEFD71200956A8C6A04B8F4
:1000700002D08C9801D08C88959804BC02D08C9CBE
:1000800001D08C8C959C04B402D08C9401D08C84CB
:10009000959495928C825BEF00F010C024F0D0DF35
:1000A0000FC024F0CDDF0EC024F0CADF0DC024F055
:1000B000C7DF0494DAD795968C8695968C969592A0
:1000C0008C926AEF00F022500E6E0E1E23C00DF0CF
:1000D0000D1EE3D712001A801AC022F021C023F0AF
:1000E000F2DF1A901AC022F021C023F0ECDF1200D8
:1000F0001A9420C021F0EFDF200E006E002EFED7F4
:1001000000D000001200EA6A1E0EE96EEF500DE00A
:10011000060E016E006A002EFED7012EFBD77B0E65
:10012000006E002EFED7EF2EF3D712001A901A920F
:100130001A841A96380E206EDBDF420E006E002EF7
:10014000FED700000C0E206ED3DF420E006E002E94
:10015000FED70000010E206ECBDF020E1E6ED3DF35
:10016000060E206EC5DF420E006E002EFED7000088
:1001700056EF01F0036A1D50F2CF1FF0F29E42DFEE
:100180001FBEF28E1E241F6E206EB2DF12001A8474
:100190001FC021F0A0DF200E006E002EFED700D081
:1001A000000012000900F5520CE0F6CF1DF0F7CF69
:1001B0001EF0F5CF1FF0EBDF1DC0F6FF1EC0F7FFEE
:1001C000F1D75EEF01F01D501E18800B206E1DAEA2
:1001D00002D01D1E1D2A1EAE02D01E1E1E2A1E503B
:1001E000016A1D5C03E21DC000F00CD0006A080E1D
:1001F0001F6E1D3600361E50005CD8B0006E0136F2
:100200001F2EF7D720AE02D0011E012A12001D6A50
:100210000F0E1E6EAFDF200E006E002EFED700D038
:1002200000001BC01DF00A0E1E6ECDDF300E012433
:100230001D6E1F6EACDF1BC01DF00A0E1E6EC3DFED
:10024000300E00241D6E1F6EA2DF200E1F6E9FDF7A
:100250001CC01DF00A0E1E6EB6DF300E01241D6E8E
:100260001F6E95DF1CC01DF00A0E1E6EACDF300E37
:1002700000241D6E1F6E8BDF61EF01F0F86AD09EC7
:10028000066A0D6A0E6A0F6A106A196AC150C00BBD
:100290000F09C16E070EB46E1168126813681468F6
:1002A0001568166817681868BCD640D71D6A1E6A9C
:1002B00061DF180EF66E000EF76E74D71C6A1B6AAB
:1002C000A6D7040E1D6EFA0E1E6E1DDF1D2EFBD767
:1002D0001C2A1C503C0806E11C6A1B2A1B503C08C7
:0802E00001E11B6AEDD70300E8
:020000040030CA
:0E00000027CC3E1E0087A1000FC00FE00F406E
:00000001FF
;PIC18F4550
;CRC=242A  CREATED="17-Nov-20 08:49"
