:1000000065EF02F0434C4F434B3A0000000E956EF3
:10001000966E956A8C680468056895928C929590A6
:100020008C90086A076A7CEF02F02BC02DF02C6AD6
:100030002C5007080EE32DBE02D08D9401D08D8484
:10004000969496908D9096908D80D8902D362C2AEF
:10005000EFD71200956A8C6A04B802D08C9801D050
:100060008C88959804BC02D08C9C01D08C8C959C7B
:1000700004B402D08C9401D08C84959495928C8297
:1000800050EF00F010C02BF0D0DF0FC02BF0CDDF11
:100090000EC02BF0CADF0DC02BF0C7DF0494DAD7F7
:1000A00095968C8695968C9695928C925FEF00F043
:1000B00029500E6E0E1E2AC00DF00D1EE3D7120041
:1000C0001A801AC029F028C02AF0F2DF1A901AC04C
:1000D00029F028C02AF0ECDF12001A9425C028F07D
:1000E000EFDF200E006E002EFED700D000001200C1
:1000F000EA6A250EE96EEF500DE0060E016E006A09
:10010000002EFED7012EFBD77B0E006E002EFED7F1
:10011000EF2EF3D7A6EF00F01A901A921A841A96CF
:10012000380E256EDADF420E006E002EFED700007C
:100130000C0E256ED2DF420E006E002EFED70000A0
:10014000010E256ECADF020E256ED2D7060E256E71
:10015000C4DF420E006E002EFED700007DEF02F0DD
:100160001A8427C028F0ACDF200E006E002EFED7C8
:1001700000D0000012000900F5520CE0F6CF25F087
:10018000F7CF26F0F5CF27F0EBDF25C0F6FF26C02E
:10019000F7FFF1D785EF02F0080E016E050E006E35
:1001A000002EFED78A929392060E006E002EFED786
:1001B00025368A90D8B09380D8A09390938281A25C
:1001C000FED7012EEBD7050E006E002EFED78A92C9
:1001D000939200009380060E006E002EFED7060E4E
:1001E000006E002EFED7938281A2FED7016A060E12
:1001F000006E002EFED781B001808A9293928A9081
:1002000093901200080E266E00C027F09380060E11
:10021000006E002EFED7938281A2FED781B0D880D7
:1002200081A0D8900136050E006E002EFED7939265
:100230008A92262EEBD79380060E006E002EFED7F4
:100240008A902750D8A493900000938281A2FED771
:10025000050E006E002EFED78A929392060E006E57
:10026000002EFED78A90939012009380050E006EA8
:10027000002EFED79382060E006E002EFED78A90C7
:100280009390050E006E002EFED78A929392D00EA8
:10029000256E82DF256A80DF9380050E006E002EBA
:1002A000FED79382060E006E002EFED781A2FED7E7
:1002B0008A909390050E006E002EFED78A9293923C
:1002C000D10E256E69DF010E006E9CDF01C021F0AA
:1002D000010E006E97DF01C020F0010E006E92DF6C
:1002E00001C01FF0010E006E8DDF01C01EF0010E77
:1002F000006E88DF01C01DF0010E006E83DF01C0BB
:100300001CF0010E006E7EDF01C01BF0010E006EBE
:1003100079DF01C023F0006A75DF01C022F09390FD
:100320000000938281A2FED7050E006E002EFED73C
:1003300000D000009380050E006E002EFED7120044
:10034000550E216E330E206E080E1F6E1E6E160E99
:100350001D6E060E1C6E130E1B6E900E236E980EF5
:10036000226E8AEF02F09380050E006E002EFED7FB
:100370009382060E006E002EFED78A909390050E93
:10038000006E002EFED78A929392D00E256E04DF67
:10039000256A02DF21C025F0FFDE20C025F0FCDE4B
:1003A0001FC025F0F9DE1EC025F0F6DE1DC025F0C9
:1003B000F3DE1CC025F0F0DE1BC025F0EDDE23C00F
:1003C00025F0EADE22C025F0E7DE9390000093825C
:1003D00081A2FED7050E006E002EFED700D00000D1
:1003E0009380050E006E002EFED78BEF02F08C0E70
:1003F000256E73DE1F38006E0F0E00160050300F92
:10040000256E276EADDE1F500F0B300F256E276E49
:10041000A7DE200E276EA4DE2038006E0F0E001619
:100420000050300F256E276E9BDE20500F0B300FD3
:10043000256E276E95DE200E276E92DE2138006E27
:100440000F0E00160050300F256E276E89DE2150EA
:100450000F0B300F256E276E83DECC0E256E3DDE32
:100460001D38006E0F0E00160050300F256E276EDF
:1004700077DE1D500F0B300F256E276E71DE200EBC
:10048000276E6EDE1C38006E0F0E00160050300F07
:10049000256E276E65DE1C500F0B300F256E276E04
:1004A0005FDE200E276E5CDE1B38006E0F0E00161E
:1004B0000050300F256E276E53DE1B500F0B300F90
:1004C000256E276E4DDE90EF02F0F86AD09E066A28
:1004D0000D6A0E6A0F6A106A196AC150C00B0F09C3
:1004E000C16E070EB46E116812681368146815683F
:1004F0001668176818688AD50FD6800E256EEDDD50
:10050000040EF66E000EF76E36D6AFDE2250980857
:1005100002E016D728D7A9DE21C024F0A6DE67D7CF
:04052000FDD7030000
:020000040030CA
:0E00000027CC3E1E0087A1000FC00FE00F406E
:00000001FF
;PIC18F4550
;CRC=5F78  CREATED="04-Jan-21 23:40"
