:100000004BEF01F0F76A140FF66E000EF7220900AD
:10001000F5501200C0F9A4B0999282F880908883BC
:10002000C6A1868E2044454D2053414E2050484164
:100030004D3A2000000E956E966E956A8C680468A5
:10004000056895928C9295908C90086A076A62EF89
:1000500001F026C428F40401276B275107080EE39A
:1000600028BF02D08D9401D08D84969496908D9067
:1000700096908D80D8902837272BEFD7000112005B
:10008000956A8C6A04B802D08C9801D08C889598B7
:1000900004BC02D08C9C01D08C8C959C04B402D002
:1000A0008C9401D08C84959495928C82120010C00F
:1000B00026F4CFDF0FC026F4CCDF0EC026F4C9DF54
:1000C0000DC026F4C6DF0494DBDF95968C869596EA
:1000D0008C9695928C9276EF00F0040123C410F078
:1000E000101E24C40FF00F1E0001E1D712001A8465
:1000F0001AC023F422C424F4F0DF1A941AC023F4A3
:1001000022C424F4EADF12001A9820C422F4EFDF9C
:100110001200040EEA6E200EE96EEF500DE0060E9E
:10012000016E006A002EFED7012EFBD77B0E006EFB
:10013000002EFED7EF2EF3D7BFEF00F01A801A8201
:100140001A941A961A9A1FC420F4DEDF100E006E5D
:10015000002EFED700000C0E0401206F0001D4DF3A
:10016000100E006E002EFED70000010E0401206F5D
:100170000001CADF020E0401206F0001CAD7060E7B
:100180000401206F0001C0DF100E006E002EFED7AC
:10019000000067EF01F01A8821C422F4A8DF1200E2
:1001A0000900F5520CE0F6CF1FF4F7CF20F4F5CF9D
:1001B00021F4F1DF1FC4F6FF20C4F7FFF1D771EF80
:1001C00001F004012251016A215D03E221C400F023
:1001D0000CD0006A080E236F213700362251005CD4
:1001E000D8B0006E0136232FF7D700011200950E0C
:1001F0000401206F000188DF1EC421F4640E040195
:10020000226F0001DEDF01C021F40A0E0401226F1B
:100210000001D7DF300E002404011F6F216F0001A1
:10022000BADF1EC421F40A0E0401226F0001C9DFE7
:1002300001C021F40A0E0401226F0001C2DF300E5A
:10024000002404011F6F216F0001A5DF1EC421F4EB
:100250000A0E0401226F0001B4DF300E00240401F5
:100260001F6F216F000197DF120025C426F4F1DE15
:1002700024C426F4EEDE23C426F4EBDE22C426F4E6
:10028000E8DE049CFDDE959E8C9E959E8C8E95925C
:100290008C92BEEF01F0F86AD09E066A0D6A0E6A73
:1002A0000F6A106A196AC150C00B0F09C16E070EA0
:1002B000B46E1168126813681468156816681768B8
:1002C0001868B8D6300E04011F6F000137D7800EB2
:1002D0000401206F000118DF240EF66E000EF76E89
:1002E0005FD7E80ED56ED76AD66A04011E6B00018F
:1002F0007EDFD65004011E6F000179DF1EC421F499
:10030000640E0401226F00015CDF036A0150F2CF2A
:100310001FF4F29E77DE04011FBFF28E1F6F1EC412
:1003200021F40A0E226F00014CDF01C021F40A0EF5
:100330000401226F000145DF036A0050F2CF20F470
:10034000F29E60DE040120BFF28E206F1EC421F4F5
:100350000A0E226F000135DF036A0050F2CF21F44C
:10036000F29E50DE040121BFF28E216F22691FC46C
:1003700023F420C424F4256F000177D704011E5113
:0E038000640802E2D76AD66A0001B3D7030010
:020000040030CA
:0E00000027CC3E1E0087A1000FC00FE00F406E
:00000001FF
;PIC18F4550
;CRC=E7D1  CREATED="15-Dec-20 10:55"
