:1000000023EF01F0F76A140FF66E000EF7220900D5
:10001000F5501200C0F9A4B0999282F880908883BC
:10002000C6A1868E000E956E966E956A8C680468E1
:10003000056895928C9295908C90086A076A3AEFC1
:1000400001F0016A026A006A036A2B5002E12A5039
:1000500018E0100E2C6ED89028362936003603365C
:100060002B50035C02E12A50005C07E32A50005E3B
:10007000D8A003062B50035ED880013602362C2E02
:10008000EAD712002AC02CF02B6A2B5007080EE387
:100090002CBE02D08D9401D08D84969496908D9034
:1000A00096908D80D8902C362B2AEFD71200956A27
:1000B0008C6A04B802D08C9801D08C88959804BCC6
:1000C00002D08C9C01D08C8C959C04B402D08C9472
:1000D00001D08C84959495928C827DEF00F029C09C
:1000E0002AF0D0DF28C02AF0CDDF27C02AF0CADFEF
:1000F00026C02AF0C7DF049CDAD7959E8C9E959E79
:100100008C8E95928C9221EF01F025C029F024C0AD
:1001100028F02B6A0A0E2A6E94DF00C026F003C076
:1001200027F003C003F00050F2CF28F0F29E6ADF00
:1001300028BEF28E036A1C6E03C01DF025C029F094
:1001400024C028F02B6A640E2A6E7BDF00C026F0E4
:1001500003C027F003C029F000C028F02B6A0A0E64
:100160002A6E6FDF02C027F001C026F002C003F044
:100170000150F2CF28F0F29E45DF28BEF28E036ACE
:100180001E6E03C01FF025C029F024C028F0030E06
:100190002B6EE80E2A6E55DF00C026F003C027F054
:1001A00003C029F000C028F02B6A640E2A6E49DFD4
:1001B00002C027F001C026F002C003F00150F2CFC8
:1001C00028F0F29E1FDF28BEF28E036A206E03C065
:1001D00021F025C029F024C028F0030E2B6EE80E74
:1001E0002A6E2FDF02C027F001C026F002C003F004
:1001F0000150F2CF28F0F29E05DF28BEF28E036A8E
:10020000226E03C023F02250C00812E1235210E1F5
:10021000236A22682050C0080BE1215209E1216ABB
:1002200020681E50C00804E11F5202E11F6A1E68C8
:1002300022C026F020C027F01EC028F01CC029F0E4
:100240004ED749EF01F0F86AD09E066A0D6A0E6A31
:100250000F6A106A196AC150C00B0F09C16E070EF0
:10026000B46E116812681368146815681668176808
:100270001868D8D6A80ED56E260ED76EF20ED66E9A
:10028000D6501A6ED7CF1BF01BC025F01AC024F031
:100290003CD71B50260807E2FF0A03E11A500F085B
:0A02A00002E2D76AD66AECD7030029
:020000040030CA
:0E00000027CC3E1E0087A1000FC00FE00F406E
:00000001FF
;PIC18F4550
;CRC=D98A  CREATED="02-Nov-20 21:01"
