:1000000000EF01F0F76A140FF66E000EF7220900F8
:10001000F5501200C0F9A4B0999282F880908883BC
:10002000C6A1868E000E956E966E956A8C680468E1
:10003000056895928C9295908C90086A076A32EFC9
:1000400001F038C03AF0396A395007080EE33ABE79
:1000500002D08D9401D08D84969496908D90969038
:100060008D80D8903A36392AEFD71200956A8C6A7B
:1000700005BC02D08C9C01D08C8C959C05B802D01C
:100080008C9801D08C88959805B402D08C9401D0BE
:100090008C84959495908C805AEF00F007C02BF0DB
:1000A00008C02CF02CC038F0CCDF2BC038F0C9DFF2
:1000B0000594DCD795968C8695968C9695908C9029
:1000C0001200E00E0716036A26501A0FE96E000EA2
:1000D0000320EA6EEF500712E1DF262A030E2616F0
:1000E00088EF00F0E00E0716036A26501A0FE96E3B
:1000F000000E0320EA6EEF500712D0DF2606030E33
:10010000261688EF00F028A002D0DBD701D0EAD76E
:100110001200EA6A2B0EE96EEF500DE0060E016E3A
:10012000006A002EFED7012EFBD77B0E006E002E3C
:10013000FED7EF2EF3D71200016A026A006A036A43
:10014000345002E1335018E0100E356ED89031363D
:100150003236003603363450035C02E13350005C23
:1001600007E33350005ED8A003063450035ED88006
:1001700001360236352EEAD71200956A8C6A04B829
:1001800002D08C9801D08C88959804BC02D08C9CAD
:1001900001D08C8C959C04B402D08C9401D08C84BA
:1001A000959495928C82E3EF00F037C038F049DFE8
:1001B00036C038F046DF35C038F043DF34C038F0A1
:1001C00040DF049CDAD7959E8C9E959E8C8E9592EE
:1001D0008C9294EF01F0938681B610D0140E2B6EA2
:1001E00098DF938681B60AD028702A6A296A8BDF45
:1001F00027C02BF08EDF938681A6F9D795EF01F00B
:10020000F86AD09E066A0D6A0E6A0F6A106A196A49
:10021000266A28902892C150C00B0F09C16E070EA4
:10022000B46E116812681368146815681668176848
:1002300018681D0E1A6E170E1B6E1B0E1C6E0F0E0D
:100240001D6E1D0E1E6E150E1F6E170E206E130EE8
:10025000216E030E226E0B0E236E090E246E0D0E00
:10026000256EE0D6280E276E2882938A81BAFDD7A4
:100270004ADF27C02BF04DDF292AD8B42A2A2AC00A
:1002800032F029C031F0346A640E336E55DF02C09B
:100290002CF001C02BF002C003F00150F2CF2DF082
:1002A000F29EB0DE2DBEF28E2D6E2AC032F029C035
:1002B00031F0346A0A0E336E3FDF02C02FF001C006
:1002C0002EF002C032F001C031F0346A0A0E336EF3
:1002D00033DF00C02EF003C02FF003C003F0005046
:1002E000F2CF30F0F29E8EDE30BEF28E306E2AC03B
:1002F00032F029C031F0346A0A0E336E1DDF00C0BF
:1003000031F003C032F003C003F00050F2CF33F0FD
:10031000F29E78DE33BEF28E336E34682DC035F037
:1003200030C036F0376E41D756D7938881B8A0D702
:040330009CD7030053
:020000040030CA
:0E00000027CC3E1E0087A1000FC00FE00F406E
:00000001FF
;PIC18F4550
;CRC=6E70  CREATED="29-Dec-20 09:00"
