:1000000018EF01F0F76A140FF66E000EF7220900E0
:10001000F5501200C0F9A4B0999282F880908883BC
:10002000C6A1868E000E956E966E956A8C680468E1
:10003000056895928C9295908C90086A076A2FEFCC
:1000400001F0016A026A006A036A235002E1225049
:1000500018E0100E246ED890203621360036033674
:100060002350035C02E12250005C07E32250005E53
:10007000D8A003062350035ED88001360236242E12
:10008000EAD7120022C024F0236A235007080EE3A7
:1000900024BE02D08D9401D08D84969496908D903C
:1000A00096908D80D8902436232AEFD71200956A37
:1000B0008C6A04B802D08C9801D08C88959804BCC6
:1000C00002D08C9C01D08C8C959C04B402D08C9472
:1000D00001D08C84959495928C827DEF00F021C0A4
:1000E00022F0D0DF20C022F0CDDF1FC022F0CADF17
:1000F0001EC022F0C7DF049CDAD7959E8C9E959E89
:100100008C8E95928C9217EF01F01DC021F01CC0CF
:1001100020F0236A0A0E226E94DF00C01EF003C096
:100120001FF003C003F00050F2CF20F0F29E6ADF10
:1001300020BEF28E096E1DC021F01CC020F0236A83
:100140000A0E226E7EDF02C01FF001C01EF002C048
:1001500021F001C020F0236A0A0E226E72DF00C077
:100160001EF003C01FF003C003F00050F2CF20F0D8
:10017000F29E48DF20BEF28E0A6E1DC021F01CC028
:1001800020F0236A640E226E5CDF02C01FF001C003
:100190001EF002C021F001C020F0236A0A0E226E78
:1001A00050DF00C01EF003C01FF003C003F000507A
:1001B000F2CF20F0F29E26DF20BEF28E0B6E1DC025
:1001C00021F01CC020F0030E236EE80E226E39DFF2
:1001D00002C01FF001C01EF002C021F001C020F0DB
:1001E000236A0A0E226E2DDF00C01EF003C01FF02E
:1001F00003C003F00050F2CF20F0F29E03DF20BED8
:10020000F28E0C6E0C50C00809E10C680B50C0084F
:1002100005E10B680A50C00801E10A680CC01EF035
:100220000BC01FF00AC020F009C021F058D71200FF
:10023000F86AD09E066A0D6A0E6A0F6A106A196A19
:10024000C150C00B0F09C16E070EB46E1168126861
:10025000136814681568166817681868E3D6E80EFE
:10026000D56ED76AD66A1A6A1AC01BF01D6A1AC000
:100270001CF04BDFD6501A6E1B501A5C0CE01AC0F3
:100280001BF01D6A1AC01CF040DF1A50640803E21C
:0A029000D76A010ED66EEED7030008
:020000040030CA
:0E00000027CC3E1E0087A1000FC00FE00F406E
:00000001FF
;PIC18F4550
;CRC=70C6  CREATED="27-Oct-20 09:51"
