:100000009FEF00F0000E956E966E956A8C680468FE
:10001000056895928C9295908C90086A076AD1EF4A
:1000200000F02BC02DF02C6A2C5007080EE32DBEDB
:1000300002D08D9401D08D84969496908D90969058
:100040008D80D8902D362C2AEFD71200956A8C6AB5
:1000500005BC02D08C9C01D08C8C959C05B802D03C
:100060008C9801D08C88959805B402D08C9401D0DE
:100070008C84959495908C804AEF00F007C029F00D
:1000800008C02AF02AC02BF0CCDF29C02BF0C9DF32
:100090000594DCD795968C8695968C9695908C9049
:1000A0001200E00E0716036A26501A0FE96E000EC2
:1000B0000320EA6EEF500712E1DF262A030E261610
:1000C00078EF00F0E00E0716036A26501A0FE96E6B
:1000D000000E0320EA6EEF500712D0DF2606030E53
:1000E000261678EF00F028A002D0DBD701D0EAD79F
:1000F0001200EA6A290EE96EEF500DE0060E016E5D
:10010000006A002EFED7012EFBD77B0E006E002E5C
:10011000FED7EF2EF3D71200938681B60ED0140EC1
:10012000296EE7DF938681B608D02870DCDF27C010
:1001300029F0DFDF938681A6F9D7DCEF00F0F86ABB
:10014000D09E066A0D6A0E6A0F6A106A196A266ADC
:1001500028902892C150C00B0F09C16E070EB46ED3
:1001600011681268136814681568166817681868AB
:100170001D0E1A6E170E1B6E1B0E1C6E0F0E1D6EC3
:100180001D0E1E6E150E1F6E170E206E130E216EA5
:10019000030E226E0B0E236E090E246E0D0E256EBD
:1001A00031D7050E276E2882938A81BAFDD79BDF4F
:1001B00027C029F09EDFB0D7938881B8F8D7F4D74D
:0201C00003003A
:020000040030CA
:0E00000027CC3E1E0087A1000FC00FE00F406E
:00000001FF
;PIC18F4550
;CRC=4797  CREATED="29-Dec-20 08:33"
