:040000002FEF02F0EC
:08000800046ED8CF05F0E0CF33
:1000100006F00001E9CF0CF0EACF07F0E1CF08F0DD
:10002000E2CF09F0D9CF0AF0DACF0BF0F3CF12F01C
:10003000F4CF13F0FACF14F000C00EF001C00FF0AF
:1000400002C010F003C011F09DA02AEF00F09EB096
:1000500071EF00F00EC000F00FC001F010C002F010
:1000600011C003F00CC0E9FF07C0EAFF078E08C00B
:10007000E1FF09C0E2FF0AC0D9FF0BC0DAFF12C0DE
:10008000F3FF13C0F4FF14C0FAFF045006C0E0FFF2
:1000900005C0D8FF1000F2CF0DF0F29EF76AB00F46
:1000A000F66E000EF7220900F5500DBEF28E12001A
:1000B000C0F9A4B0999282F880908883C6A1868EF8
:1000C000F2CF0DF0F29EF76ADA0FF66E000EF7220D
:1000D0000900F5500DBEF28E12007FBFDFEFF7FB77
:1000E000FDFE0B0ECF6EDC0ECE6E2F2A9E902AEFF9
:1000F00000F0000E956E966E956A8C68166817680B
:1001000095928C9295908C901A6A196A48EF02F039
:1001100032503318800B356E32AE02D0321E322A86
:1001200033AE02D0331E332A3350016A325C03E20D
:1001300032C000F00CD0006A080E346E3236003641
:100140003350005CD8B0006E0136342EF7D735AE90
:1001500002D0011E012A12002EC032F00A0E336EA8
:10016000D7DF036A0050F2CF32F0F29E94DF32BE46
:10017000F28E236E2EC032F00A0E336EC9DF036A90
:100180000150F2CF32F0F29E86DF32BEF28E246E44
:100190002DC032F00A0E336EBBDF036A0050F2CF7F
:1001A00032F0F29E78DF32BEF28E266E2DC032F033
:1001B0000A0E336EADDF036A0150F2CF32F0F29EC9
:1001C0006ADF32BEF28E276E2CC032F00A0E336E1A
:1001D0009FDF036A0050F2CF32F0F29E5CDF32BE46
:1001E000F28E296E2CC032F00A0E336E91DF036A54
:1001F0000150F2CF32F0F29E4EDF32BEF28E2A6E06
:1002000057EF02F0312C03D0236824680BD0315013
:10021000020803E12668276805D03150030802E18F
:1002200029682A686AEF02F036C038F0376A37501A
:1002300007080EE338BE02D08D9401D08D849694C9
:1002400096908D9096908D80D8903836372AEFD73B
:100250001200956A8C6A17BC02D08C9C01D08C8CE1
:10026000959C17B802D08C9801D08C88959817B4BB
:1002700002D08C9401D08C84959495908C8012003F
:10028000036A3350F2CF35F0F29E1ADF35BEF28E9C
:10029000016E356E351E35C036F0C6DF34C035F020
:1002A000351E35C036F0C0DF1798D3DF959A8C8A9B
:1002B000959A8C9A95908C908BEF01F03250346E19
:1002C000341E34C036F0B0DF33C034F0341E34C0D6
:1002D00036F0AADF1798BDDF959A8C8A959A8C9A8A
:1002E00095908C9077EF01F032683368E7D791EF03
:1002F00001F02B6A2B50070816E3036A2B50230FDB
:10030000E96E000E0320EA6EEFCF32F02BC033F01F
:1003100032C034F0B5D7A60E006E002EFED7000016
:10032000E3D72B2AE7D76BEF02F0938681B60FD085
:10033000182A335208E13250185C05E3186A010E9E
:10034000016E07D003D0000E016E03D002D0000E64
:10035000016EAFEF01F0336AC80E326EE6D701527C
:1003600006E0312A3150030801E2316A306A6CEF4D
:1003700002F0938A81BA0FD0182A335208E1325022
:10038000185C05E3186A010E016E07D003D0000E59
:10039000016E03D002D0000E016ED3EF01F0336A7C
:1003A000C80E326EE6D701521DE03150010A05E059
:1003B000030A0AE0010A0FE015D02E503B0802E1C3
:1003C0002E6A01D02E2A0ED02D503B0802E12D6A54
:1003D00001D02D2A07D02C50170802E12C6A01D039
:1003E0002C2A00D06DEF02F0938881B80FD0182A24
:1003F000335208E13250185C05E3186A010E016EB1
:1004000007D003D0000E016E03D002D0000E016EA3
:100410000EEF02F0336AC80E326EE6D701521DE0CD
:100420003150010A05E0030A0AE0010A0FE015D085
:100430002E5203E13B0E2E6E01D02E060ED02D5211
:1004400003E13B0E2D6E01D02D0607D02C5203E1A7
:10045000170E2E6E01D02C0600D06EEF02F0F86A57
:10046000D09E078E186A1F6A206A216A226A2B6A48
:10047000306AC150C00B0F09C16E070EB46E2368FD
:100480002468256826682768286829682A6831D67C
:10049000B50ECD6E0B0ECF6EDC0ECE6EC00EF21210
:1004A0009D802C6A2D6A2E6A316A2F6A55D62FBE1E
:1004B00003D02F50090813E32FBE03D02F50040898
:1004C00009E3938A81AA06D0938881A803D09386F2
:1004D00081B698D60ED73FD762D79CD716D00A0ED2
:1004E0002F5E302A3050140801E1316A2E2A2E5036
:1004F0003C080BE12E6A2D2A2D503C0806E12D6A9E
:0E0500002C2A2C50180801E12C6AD0D70300D9
:020000040030CA
:0E00000027CC3E1E0087A1000FC00FE00F406E
:00000001FF
;PIC18F4550
;CRC=162B  CREATED="10-Nov-20 08:41"
